{"contracts/FlashArbitrage.sol":{"FlashArbitrage":{"abi":[{"inputs":[{"internalType":"address[]","name":"_routers","type":"address[]"},{"internalType":"address","name":"_wrappedNative","type":"address"},{"internalType":"uint256","name":"_flashLoanFeeBps","type":"uint256"}],"stateMutability":"nonpayable","type":"constructor"},{"inputs":[],"name":"ContractPaused","type":"error"},{"inputs":[{"internalType":"uint256","name":"expected","type":"uint256"},{"internalType":"uint256","name":"actual","type":"uint256"}],"name":"InsufficientProfit","type":"error"},{"inputs":[],"name":"InvalidCallback","type":"error"},{"inputs":[],"name":"InvalidPath","type":"error"},{"inputs":[],"name":"ReentrancyGuard","type":"error"},{"inputs":[{"internalType":"address","name":"router","type":"address"}],"name":"RouterNotWhitelisted","type":"error"},{"inputs":[],"name":"Unauthorized","type":"error"},{"inputs":[],"name":"ZeroAmount","type":"error"},{"anonymous":false,"inputs":[{"indexed":true,"internalType":"address","name":"token","type":"address"},{"indexed":false,"internalType":"uint256","name":"borrowAmount","type":"uint256"},{"indexed":false,"internalType":"uint256","name":"profit","type":"uint256"},{"indexed":false,"internalType":"string","name":"arbitrageType","type":"string"}],"name":"ArbitrageExecuted","type":"event"},{"anonymous":false,"inputs":[{"indexed":true,"internalType":"address","name":"token","type":"address"},{"indexed":false,"internalType":"uint256","name":"amount","type":"uint256"}],"name":"EmergencyWithdraw","type":"event"},{"anonymous":false,"inputs":[{"indexed":false,"internalType":"bool","name":"status","type":"bool"}],"name":"Paused","type":"event"},{"anonymous":false,"inputs":[{"indexed":true,"internalType":"address","name":"router","type":"address"},{"indexed":false,"internalType":"bool","name":"status","type":"bool"}],"name":"RouterWhitelisted","type":"event"},{"inputs":[],"name":"MIN_PROFIT_WEI","outputs":[{"internalType":"uint256","name":"","type":"uint256"}],"stateMutability":"view","type":"function"},{"inputs":[],"name":"WBNB","outputs":[{"internalType":"address","name":"","type":"address"}],"stateMutability":"view","type":"function"},{"inputs":[{"internalType":"address[]","name":"routers","type":"address[]"},{"internalType":"bool[]","name":"statuses","type":"bool[]"}],"name":"batchSetRouterWhitelist","outputs":[],"stateMutability":"nonpayable","type":"function"},{"inputs":[{"internalType":"address","name":"token","type":"address"}],"name":"emergencyWithdraw","outputs":[],"stateMutability":"nonpayable","type":"function"},{"inputs":[{"internalType":"address","name":"flashPair","type":"address"},{"internalType":"uint256","name":"borrowAmount","type":"uint256"},{"internalType":"address","name":"tokenBorrow","type":"address"},{"internalType":"address[]","name":"path","type":"address[]"},{"internalType":"address[]","name":"routers","type":"address[]"},{"internalType":"uint256","name":"minProfit","type":"uint256"}],"name":"executeCrossDexArbitrage","outputs":[],"stateMutability":"nonpayable","type":"function"},{"inputs":[{"internalType":"address","name":"flashPair","type":"address"},{"internalType":"uint256","name":"borrowAmount","type":"uint256"},{"internalType":"address","name":"tokenBorrow","type":"address"},{"internalType":"address[]","name":"path","type":"address[]"},{"internalType":"address","name":"router","type":"address"},{"internalType":"uint256","name":"minProfit","type":"uint256"}],"name":"executeTriangularArbitrage","outputs":[],"stateMutability":"nonpayable","type":"function"},{"inputs":[],"name":"flashLoanFeeBps","outputs":[{"internalType":"uint256","name":"","type":"uint256"}],"stateMutability":"view","type":"function"},{"inputs":[{"internalType":"address","name":"router","type":"address"}],"name":"isRouterWhitelisted","outputs":[{"internalType":"bool","name":"","type":"bool"}],"stateMutability":"view","type":"function"},{"inputs":[],"name":"owner","outputs":[{"internalType":"address","name":"","type":"address"}],"stateMutability":"view","type":"function"},{"inputs":[{"internalType":"address","name":"sender","type":"address"},{"internalType":"uint256","name":"amount0","type":"uint256"},{"internalType":"uint256","name":"amount1","type":"uint256"},{"internalType":"bytes","name":"data","type":"bytes"}],"name":"pancakeCall","outputs":[],"stateMutability":"nonpayable","type":"function"},{"inputs":[],"name":"paused","outputs":[{"internalType":"bool","name":"","type":"bool"}],"stateMutability":"view","type":"function"},{"inputs":[{"internalType":"bool","name":"_paused","type":"bool"}],"name":"setPaused","outputs":[],"stateMutability":"nonpayable","type":"function"},{"inputs":[{"internalType":"address","name":"router","type":"address"},{"internalType":"bool","name":"status","type":"bool"}],"name":"setRouterWhitelist","outputs":[],"stateMutability":"nonpayable","type":"function"},{"inputs":[{"internalType":"address[]","name":"path","type":"address[]"},{"internalType":"address[]","name":"routers","type":"address[]"},{"internalType":"uint256","name":"amountIn","type":"uint256"}],"name":"simulateArbitrage","outputs":[{"internalType":"uint256","name":"expectedOut","type":"uint256"},{"internalType":"uint256","name":"flashFee","type":"uint256"},{"internalType":"int256","name":"netProfit","type":"int256"}],"stateMutability":"view","type":"function"},{"inputs":[{"internalType":"address","name":"","type":"address"}],"name":"whitelistedRouters","outputs":[{"internalType":"bool","name":"","type":"bool"}],"stateMutability":"view","type":"function"},{"inputs":[],"name":"wrappedNative","outputs":[{"internalType":"address","name":"","type":"address"}],"stateMutability":"view","type":"function"},{"stateMutability":"payable","type":"receive"}],"evm":{"bytecode":{"linkReferences":{},"object":"604060e0815234620002535762001c1790813803806200001f816200026e565b9384398201606083820312620002535782516001600160401b0390818111620002535784019180601f840112156200025357825191821162000258578160051b6020938480620000718185016200026e565b809681520192820101928311620002535784809101915b838310620002385750859250620000a29150860162000294565b9401516001600160a01b039485811615620001f45760648211620001c1573360805260a05260c05260005b81518110156200015f5784620000e48284620002a9565b511660005260008352836000206001908160ff198254161790557fcf2b36bf2aa8353623d06f58eab9577176d9214e588362c013a7eeb0586463f184876200012d8587620002a9565b5116928751908152a260001981146200014957600101620000cd565b634e487b7160e01b600052601160045260246000fd5b83516119429081620002d5823960805181818161013a015281816104f6015281816106be0152818161098301528181610f1c01528181610faf015261141a015260a05181611584015260c05181818161062901528181610ad101526113330152f35b845162461bcd60e51b815260048101859052600c60248201526b08ccaca40e8dede40d0d2ced60a31b6044820152606490fd5b845162461bcd60e51b815260048101859052601660248201527f496e76616c69642077726170706564206e6174697665000000000000000000006044820152606490fd5b8190620002458462000294565b815201910190849062000088565b600080fd5b634e487b7160e01b600052604160045260246000fd5b6040519190601f01601f191682016001600160401b038111838210176200025857604052565b51906001600160a01b03821682036200025357565b8051821015620002be5760209160051b010190565b634e487b7160e01b600052603260045260246000fdfe608080604052600436101561001d575b50361561001b57600080fd5b005b600090813560e01c9081630aef023f146114c3575080630f874a131461148557806316c38b3c146113f95780633e69e169146113d75780634ffb759e146111b05780635c975abb1461118d5780636ff1c9bc14610f925780637b22433914610ee957806384800812146109b25780638da5cb5b1461096d5780638dd95002146104975780639148453a1461064c578063c0c7347e14610611578063d1607fed1461049c578063eb6d3a11146104975763fbdc9c4c0361000f57346104945760c0366003190112610494576100ef6114fe565b60248035916100fc611514565b926001600160401b03916064358381116104905761011e90369060040161153e565b6001600160a01b039491906084358681169081900361048b57867f000000000000000000000000000000000000000000000000000000000000000016330361047a576001549860ff8a166104685760ff8a60081c166104565761ff0019998a1661010017600155861561044457600483036103ff5782156104315790839291886101aa819897966115d9565b911696168614801590610411575b6103ff57808b526020988b8a5260ff60408d205416156103e9576040519460808601908111868210176103d457604052600385526060368b870137816101fd8661177a565b528161020886611787565b528451600210156103c05750838961026a6102578b9a9895968f9d9c9761027e96606060029d9b01526040519b8c958601528960408601528a606086015260c0608086015260e0850191611612565b601f1993848483030160a08501526117ab565b60a43560c0830152039081018752866116b5565b1693604051630dfe168160e01b81528681600481895afa9081156103b5578891610398575b5060405163d21220a760e01b815287816004818a5afa97881561038d57899861035a575b5050811682036103535782955b160361034b57915b803b1561034757610309938580946040519687958694859363022c0d9f60e01b8552309160048601611735565b03925af1801561033c57610324575b50506001541660015580f35b61032d90611656565b610338578138610318565b5080fd5b6040513d84823e3d90fd5b8480fd5b5083916102dc565b86956102d4565b83929850908161037e92903d10610386575b61037681836116b5565b8101906116d6565b9690386102c7565b503d61036c565b6040513d8b823e3d90fd5b6103af9150873d89116103865761037681836116b5565b386102a3565b6040513d8a823e3d90fd5b634e487b7160e01b60009081526032600452fd5b50634e487b7160e01b60009081526041600452fd5b90604051906382e73dd160e01b82526004820152fd5b6040516320db826760e01b8152600490fd5b508160031015610431578588610429606086016115d9565b1614156101b8565b634e487b7160e01b8b526032600452888bfd5b604051631f2a200560e01b8152600490fd5b6040516345f5ce8b60e11b8152600490fd5b60405163ab35696f60e01b8152600490fd5b6040516282b42960e81b8152600490fd5b600080fd5b8680fd5b80fd5b61156e565b5034610494576040366003190112610494576001600160401b0360043581811161060d576104ce90369060040161153e565b9091602435908111610609576104e890369060040161153e565b90916001600160a01b0391907f00000000000000000000000000000000000000000000000000000000000000008316330361047a578181036105d257855b818110610531578680f35b806105486105436105cd9386896115b3565b6118ff565b8561055c61055784878c6115b3565b6115d9565b16895261057d6020918a835260408b209060ff801983541691151516179055565b7fcf2b36bf2aa8353623d06f58eab9577176d9214e588362c013a7eeb0586463f16105ac61055784878c6115b3565b91876105bc610543868a8d6115b3565b9360405194151585521692a26115ed565b610526565b60405162461bcd60e51b815260206004820152600f60248201526e098cadccee8d040dad2e6dac2e8c6d608b1b6044820152606490fd5b8380fd5b8280fd5b503461049457806003193601126104945760206040517f00000000000000000000000000000000000000000000000000000000000000008152f35b50346104945760c0366003190112610494576106666114fe565b90602490813591610675611514565b926001600160401b03906064358281116103475761069790369060040161153e565b92608435908111610969576106b090369060040161153e565b6001600160a01b03959192917f00000000000000000000000000000000000000000000000000000000000000008716330361047a576001549860ff90818b1661046857818b60081c166104565761ff00199a8b1661010017600155861561044457600288106103ff578715610956579084939291896107308198976115d9565b911696168614801590610931575b6103ff57600019880188811161091e5783036103ff57895b8381106108c857505050869261079c98999a926107b06107c4936040519b8c9360209b60018d8701528a60408701528b606087015260c0608087015260e0860191611612565b90601f1994858584030160a0860152611612565b60a43560c0830152039081018952886116b5565b1693604051630dfe168160e01b81528481600481895afa9081156103b55788916108ab575b5060405163d21220a760e01b815285816004818a5afa95861561038d578996610888575b5050811682036108815782935b160361087a575b823b15610347579161085093918580946040519687958694859363022c0d9f60e01b8552309160048601611735565b03925af1801561033c5761086b575b50906001541660015580f35b61087490611656565b3861085f565b5083610821565b869361081a565b8392965090816108a392903d106103865761037681836116b5565b94903861080d565b6108c29150853d87116103865761037681836116b5565b386107e9565b896108d761055783878a6115b3565b168b528a6020528160408c205416156108f8576108f3906115ed565b610756565b896109086105578593878a6115b3565b6040516382e73dd160e01b815291166004820152fd5b634e487b7160e01b8b526011600452828bfd5b50600019880188811161091e578961094e61055789938c896115b3565b16141561073e565b634e487b7160e01b8a526032600452828afd5b8580fd5b50346104945780600319360112610494576040517f00000000000000000000000000000000000000000000000000000000000000006001600160a01b03168152602090f35b5034610494576080366003190112610494576109cc6114fe565b6001600160401b0391606435838111610338573660238201121561033857806004013584811161060d578101602481019336851161060957604051630dfe168160e01b8152602081600481335afa8015610ebf57610eca575b5060405163d21220a760e01b8152602081600481335afa8015610ebf57610ea0575b50306001600160a01b0390911603610e8e578160c091031261033857602481013560ff8116810361060d576044820135936001600160a01b038516850361060957608483013586811161034757816024610aa3928601016117e8565b9560a484013590811161034757906024610abf928501016117e8565b9160c481013594610b05612710610afa7f0000000000000000000000000000000000000000000000000000000000000000606486013561184e565b046064840135611861565b91600183018311610e7a57859360648201355b895180600019810111610c755760001901861015610cf9576001600160a01b03610b42878c611797565b511690600187018711610c75576001600160a01b03610b64600189018d611797565b5116906001600160a01b03610b79898b611797565b5160405163095ea7b360e01b815291166001600160a01b03811660048301526024820183905292906020816044818f895af18015610cee57610cbf575b5060405193610bc48561167f565b600285526040366020870137610bd98561177a565b52610be384611787565b5261012c42014211610cab57918991610c2693836040518096819582946338ed173960e01b8452600484015283602484015260a0604484015260a48301906117ab565b30606483015261012c4201608483015203925af19081156103b5578891610c89575b50805180600019810111610c7557610c6f91610c68916000190190611797565b51956115ed565b94610b18565b634e487b7160e01b89526011600452602489fd5b610ca591503d808a833e610c9d81836116b5565b810190611886565b38610c48565b634e487b7160e01b8a52601160045260248afd5b610ce09060203d602011610ce7575b610cd881836116b5565b81019061186e565b5038610bb6565b503d610cce565b6040513d8e823e3d90fd5b9187939189610d0b8160018901611861565b8510610e4f575085840360001901938411610e3b5760405163a9059cbb60e01b8152336004820152600196909601602487015293949293602084604481896001600160a01b0388165af1928315610e3057600160ff610de2937f45e7252570bebf093d5fa10dcbcf1ec94556af7ffc1416c787598ca67c18c3d497606497610e11575b501603610de857604051610da18161169a565b60098152680c6e4dee6e65ac8caf60bb1b6020820152955b6040519485940135845260208401526060604084015260018060a01b03169460608301906116f5565b0390a280f35b604051610df48161169a565b600a8152693a3934b0b733bab630b960b11b602082015295610db9565b610e299060203d602011610ce757610cd881836116b5565b508a610d8e565b6040513d88823e3d90fd5b634e487b7160e01b85526011600452602485fd5b84610e5f60449260018a01611861565b9060405191632744211560e11b835260048301526024820152fd5b634e487b7160e01b86526011600452602486fd5b60405163f7a632f560e01b8152600490fd5b610eb89060203d6020116103865761037681836116b5565b5038610a47565b6040513d87823e3d90fd5b610ee29060203d6020116103865761037681836116b5565b5038610a25565b503461049457604036600319011261049457610f036114fe565b60243590811515808303610609576001600160a01b03907f00000000000000000000000000000000000000000000000000000000000000008216330361047a57610f886020927fcf2b36bf2aa8353623d06f58eab9577176d9214e588362c013a7eeb0586463f1941694858752868452604087209060ff801983541691151516179055565b604051908152a280f35b50346104945760208060031936011261033857610fad6114fe565b7f0000000000000000000000000000000000000000000000000000000000000000906001600160a01b0390818316330361047a5716806110ad5750828080804780955af13d156110a8573d6001600160401b038111611094576040519061101d601f8201601f19168601836116b5565b815284843d92013e5b156110595782917f5fafa99d0643513820be26656b45130b01e1c03062e1266bf36f88cbd3bd969591604051908152a280f35b60405162461bcd60e51b8152600481018390526013602482015272109390881d1c985b9cd9995c8819985a5b1959606a1b6044820152606490fd5b634e487b7160e01b85526041600452602485fd5b611026565b91604051916370a0823160e01b83523060048401528183602481875afa928315610ebf57859361115e575b5060405163a9059cbb60e01b81526001600160a01b039190911660048201526024810183905291818360448188885af1928315610ebf577f5fafa99d0643513820be26656b45130b01e1c03062e1266bf36f88cbd3bd969593611141575b50604051908152a280f35b61115790833d8511610ce757610cd881836116b5565b5038611136565b92508183813d8311611186575b61117581836116b5565b8101031261034757915191816110d8565b503d61116b565b5034610494578060031936011261049457602060ff600154166040519015158152f35b5034610494576060366003190112610494576001600160401b0360043581811161060d576111e290369060040161153e565b906024928335908111610347576111fd90369060040161153e565b604494919493843591829688935b60001984018481116113c457851015611327576040519061122b8261167f565b60028252604036602084013761124561055787878b6115b3565b61124e8361177a565b6001600160a01b039182169052600187018088116113145792888d936112c26040946112818f988f908d610557926115b3565b8161128b87611787565b9116905261129d6105578d8c8c6115b3565b169385519788968795869563d06ca61f60e01b875260048701528501528301906117ab565b03915afa908115611309576112e9916112e2918c916112ef575b50611787565b51946115ed565b9361120b565b61130391503d808e833e610c9d81836116b5565b386112dc565b6040513d8c823e3d90fd5b634e487b7160e01b8d526011600452888dfd5b85908a8a6127106113587f00000000000000000000000000000000000000000000000000000000000000008361184e565b0490600182018092116113b1578161136f91611861565b918083850393128484128116908585139015161761139e57506060935060405192835260208301526040820152f35b634e487b7160e01b815260116004528490fd5b634e487b7160e01b835260116004528483fd5b634e487b7160e01b8b526011600452868bfd5b5034610494578060031936011261049457602060405166038d7ea4c680008152f35b503461049457602036600319011261049457600435801515809103610338577f00000000000000000000000000000000000000000000000000000000000000006001600160a01b0316330361047a5760207f0e2fb031ee032dc02d8011dc50b816eb450cf856abd8261680dac74f72165bd29160ff196001541660ff821617600155604051908152a180f35b50346104945760203660031901126104945760209060ff906040906001600160a01b036114b06114fe565b1681528084522054166040519015158152f35b9050346103385760203660031901126103385760209160ff906040906001600160a01b036114ef6114fe565b16815280855220541615158152f35b600435906001600160a01b038216820361048b57565b604435906001600160a01b038216820361048b57565b35906001600160a01b038216820361048b57565b9181601f8401121561048b578235916001600160401b03831161048b576020808501948460051b01011161048b57565b3461048b57600036600319011261048b576040517f00000000000000000000000000000000000000000000000000000000000000006001600160a01b03168152602090f35b91908110156115c35760051b0190565b634e487b7160e01b600052603260045260246000fd5b356001600160a01b038116810361048b5790565b60001981146115fc5760010190565b634e487b7160e01b600052601160045260246000fd5b91908082526020809201929160005b82811061162f575050505090565b909192938280600192838060a01b036116478961152a565b16815201950193929101611621565b6001600160401b03811161166957604052565b634e487b7160e01b600052604160045260246000fd5b606081019081106001600160401b0382111761166957604052565b604081019081106001600160401b0382111761166957604052565b90601f801991011681019081106001600160401b0382111761166957604052565b9081602091031261048b57516001600160a01b038116810361048b5790565b919082519283825260005b848110611721575050826000602080949584010152601f8019910116010190565b602081830181015184830182015201611700565b909260809261176095948352602083015260018060a01b0316604082015281606082015201906116f5565b90565b6001600160401b0381116116695760051b60200190565b8051156115c35760200190565b8051600110156115c35760400190565b80518210156115c35760209160051b010190565b90815180825260208080930193019160005b8281106117cb575050505090565b83516001600160a01b0316855293810193928101926001016117bd565b81601f8201121561048b578035916117ff83611763565b9261180d60405194856116b5565b808452602092838086019260051b82010192831161048b578301905b828210611837575050505090565b8380916118438461152a565b815201910190611829565b818102929181159184041417156115fc57565b919082018092116115fc57565b9081602091031261048b5751801515810361048b5790565b602090818184031261048b578051906001600160401b03821161048b57019180601f8401121561048b5782516118bb81611763565b936118c960405195866116b5565b818552838086019260051b82010192831161048b578301905b8282106118f0575050505090565b815181529083019083016118e2565b35801515810361048b579056fea2646970667358221220d90b77307288c7a048c46e66b5c38501cfacb4c43bf70c57554655999423d0e264736f6c63430008130033","opcodes":"PUSH1 0x40 PUSH1 0xE0 DUP2 MSTORE CALLVALUE PUSH3 0x253 JUMPI PUSH3 0x1C17 SWAP1 DUP2 CODESIZE SUB DUP1 PUSH3 0x1F DUP2 PUSH3 0x26E JUMP JUMPDEST SWAP4 DUP5 CODECOPY DUP3 ADD PUSH1 0x60 DUP4 DUP3 SUB SLT PUSH3 0x253 JUMPI DUP3 MLOAD PUSH1 0x1 PUSH1 0x1 PUSH1 0x40 SHL SUB SWAP1 DUP2 DUP2 GT PUSH3 0x253 JUMPI DUP5 ADD SWAP2 DUP1 PUSH1 0x1F DUP5 ADD SLT ISZERO PUSH3 0x253 JUMPI DUP3 MLOAD SWAP2 DUP3 GT PUSH3 0x258 JUMPI DUP2 PUSH1 0x5 SHL PUSH1 0x20 SWAP4 DUP5 DUP1 PUSH3 0x71 DUP2 DUP6 ADD PUSH3 0x26E JUMP JUMPDEST DUP1 SWAP7 DUP2 MSTORE ADD SWAP3 DUP3 ADD ADD SWAP3 DUP4 GT PUSH3 0x253 JUMPI DUP5 DUP1 SWAP2 ADD SWAP2 JUMPDEST DUP4 DUP4 LT PUSH3 0x238 JUMPI POP DUP6 SWAP3 POP PUSH3 0xA2 SWAP2 POP DUP7 ADD PUSH3 0x294 JUMP JUMPDEST SWAP5 ADD MLOAD PUSH1 0x1 PUSH1 0x1 PUSH1 0xA0 SHL SUB SWAP5 DUP6 DUP2 AND ISZERO PUSH3 0x1F4 JUMPI PUSH1 0x64 DUP3 GT PUSH3 0x1C1 JUMPI CALLER PUSH1 0x80 MSTORE PUSH1 0xA0 MSTORE PUSH1 0xC0 MSTORE PUSH1 0x0 JUMPDEST DUP2 MLOAD DUP2 LT ISZERO PUSH3 0x15F JUMPI DUP5 PUSH3 0xE4 DUP3 DUP5 PUSH3 0x2A9 JUMP JUMPDEST MLOAD AND PUSH1 0x0 MSTORE PUSH1 0x0 DUP4 MSTORE DUP4 PUSH1 0x0 KECCAK256 PUSH1 0x1 SWAP1 DUP2 PUSH1 0xFF NOT DUP3 SLOAD AND OR SWAP1 SSTORE PUSH32 0xCF2B36BF2AA8353623D06F58EAB9577176D9214E588362C013A7EEB0586463F1 DUP5 DUP8 PUSH3 0x12D DUP6 DUP8 PUSH3 0x2A9 JUMP JUMPDEST MLOAD AND SWAP3 DUP8 MLOAD SWAP1 DUP2 MSTORE LOG2 PUSH1 0x0 NOT DUP2 EQ PUSH3 0x149 JUMPI PUSH1 0x1 ADD PUSH3 0xCD JUMP JUMPDEST PUSH4 0x4E487B71 PUSH1 0xE0 SHL PUSH1 0x0 MSTORE PUSH1 0x11 PUSH1 0x4 MSTORE PUSH1 0x24 PUSH1 0x0 REVERT JUMPDEST DUP4 MLOAD PUSH2 0x1942 SWAP1 DUP2 PUSH3 0x2D5 DUP3 CODECOPY PUSH1 0x80 MLOAD DUP2 DUP2 DUP2 PUSH2 0x13A ADD MSTORE DUP2 DUP2 PUSH2 0x4F6 ADD MSTORE DUP2 DUP2 PUSH2 0x6BE ADD MSTORE DUP2 DUP2 PUSH2 0x983 ADD MSTORE DUP2 DUP2 PUSH2 0xF1C ADD MSTORE DUP2 DUP2 PUSH2 0xFAF ADD MSTORE PUSH2 0x141A ADD MSTORE PUSH1 0xA0 MLOAD DUP2 PUSH2 0x1584 ADD MSTORE PUSH1 0xC0 MLOAD DUP2 DUP2 DUP2 PUSH2 0x629 ADD MSTORE DUP2 DUP2 PUSH2 0xAD1 ADD MSTORE PUSH2 0x1333 ADD MSTORE RETURN JUMPDEST DUP5 MLOAD PUSH3 0x461BCD PUSH1 0xE5 SHL DUP2 MSTORE PUSH1 0x4 DUP2 ADD DUP6 SWAP1 MSTORE PUSH1 0xC PUSH1 0x24 DUP3 ADD MSTORE PUSH12 0x8CCACA40E8DEDE40D0D2CED PUSH1 0xA3 SHL PUSH1 0x44 DUP3 ADD MSTORE PUSH1 0x64 SWAP1 REVERT JUMPDEST DUP5 MLOAD PUSH3 0x461BCD PUSH1 0xE5 SHL DUP2 MSTORE PUSH1 0x4 DUP2 ADD DUP6 SWAP1 MSTORE PUSH1 0x16 PUSH1 0x24 DUP3 ADD MSTORE PUSH32 0x496E76616C69642077726170706564206E617469766500000000000000000000 PUSH1 0x44 DUP3 ADD MSTORE PUSH1 0x64 SWAP1 REVERT JUMPDEST DUP2 SWAP1 PUSH3 0x245 DUP5 PUSH3 0x294 JUMP JUMPDEST DUP2 MSTORE ADD SWAP2 ADD SWAP1 DUP5 SWAP1 PUSH3 0x88 JUMP JUMPDEST PUSH1 0x0 DUP1 REVERT JUMPDEST PUSH4 0x4E487B71 PUSH1 0xE0 SHL PUSH1 0x0 MSTORE PUSH1 0x41 PUSH1 0x4 MSTORE PUSH1 0x24 PUSH1 0x0 REVERT JUMPDEST PUSH1 0x40 MLOAD SWAP2 SWAP1 PUSH1 0x1F ADD PUSH1 0x1F NOT AND DUP3 ADD PUSH1 0x1 PUSH1 0x1 PUSH1 0x40 SHL SUB DUP2 GT DUP4 DUP3 LT OR PUSH3 0x258 JUMPI PUSH1 0x40 MSTORE JUMP JUMPDEST MLOAD SWAP1 PUSH1 0x1 PUSH1 0x1 PUSH1 0xA0 SHL SUB DUP3 AND DUP3 SUB PUSH3 0x253 JUMPI JUMP JUMPDEST DUP1 MLOAD DUP3 LT ISZERO PUSH3 0x2BE JUMPI PUSH1 0x20 SWAP2 PUSH1 0x5 SHL ADD ADD SWAP1 JUMP JUMPDEST PUSH4 0x4E487B71 PUSH1 0xE0 SHL PUSH1 0x0 MSTORE PUSH1 0x32 PUSH1 0x4 MSTORE PUSH1 0x24 PUSH1 0x0 REVERT INVALID PUSH1 0x80 DUP1 PUSH1 0x40 MSTORE PUSH1 0x4 CALLDATASIZE LT ISZERO PUSH2 0x1D JUMPI JUMPDEST POP CALLDATASIZE ISZERO PUSH2 0x1B JUMPI PUSH1 0x0 DUP1 REVERT JUMPDEST STOP JUMPDEST PUSH1 0x0 SWAP1 DUP2 CALLDATALOAD PUSH1 0xE0 SHR SWAP1 DUP2 PUSH4 0xAEF023F EQ PUSH2 0x14C3 JUMPI POP DUP1 PUSH4 0xF874A13 EQ PUSH2 0x1485 JUMPI DUP1 PUSH4 0x16C38B3C EQ PUSH2 0x13F9 JUMPI DUP1 PUSH4 0x3E69E169 EQ PUSH2 0x13D7 JUMPI DUP1 PUSH4 0x4FFB759E EQ PUSH2 0x11B0 JUMPI DUP1 PUSH4 0x5C975ABB EQ PUSH2 0x118D JUMPI DUP1 PUSH4 0x6FF1C9BC EQ PUSH2 0xF92 JUMPI DUP1 PUSH4 0x7B224339 EQ PUSH2 0xEE9 JUMPI DUP1 PUSH4 0x84800812 EQ PUSH2 0x9B2 JUMPI DUP1 PUSH4 0x8DA5CB5B EQ PUSH2 0x96D JUMPI DUP1 PUSH4 0x8DD95002 EQ PUSH2 0x497 JUMPI DUP1 PUSH4 0x9148453A EQ PUSH2 0x64C JUMPI DUP1 PUSH4 0xC0C7347E EQ PUSH2 0x611 JUMPI DUP1 PUSH4 0xD1607FED EQ PUSH2 0x49C JUMPI DUP1 PUSH4 0xEB6D3A11 EQ PUSH2 0x497 JUMPI PUSH4 0xFBDC9C4C SUB PUSH2 0xF JUMPI CALLVALUE PUSH2 0x494 JUMPI PUSH1 0xC0 CALLDATASIZE PUSH1 0x3 NOT ADD SLT PUSH2 0x494 JUMPI PUSH2 0xEF PUSH2 0x14FE JUMP JUMPDEST PUSH1 0x24 DUP1 CALLDATALOAD SWAP2 PUSH2 0xFC PUSH2 0x1514 JUMP JUMPDEST SWAP3 PUSH1 0x1 PUSH1 0x1 PUSH1 0x40 SHL SUB SWAP2 PUSH1 0x64 CALLDATALOAD DUP4 DUP2 GT PUSH2 0x490 JUMPI PUSH2 0x11E SWAP1 CALLDATASIZE SWAP1 PUSH1 0x4 ADD PUSH2 0x153E JUMP JUMPDEST PUSH1 0x1 PUSH1 0x1 PUSH1 0xA0 SHL SUB SWAP5 SWAP2 SWAP1 PUSH1 0x84 CALLDATALOAD DUP7 DUP2 AND SWAP1 DUP2 SWAP1 SUB PUSH2 0x48B JUMPI DUP7 PUSH32 0x0 AND CALLER SUB PUSH2 0x47A JUMPI PUSH1 0x1 SLOAD SWAP9 PUSH1 0xFF DUP11 AND PUSH2 0x468 JUMPI PUSH1 0xFF DUP11 PUSH1 0x8 SHR AND PUSH2 0x456 JUMPI PUSH2 0xFF00 NOT SWAP10 DUP11 AND PUSH2 0x100 OR PUSH1 0x1 SSTORE DUP7 ISZERO PUSH2 0x444 JUMPI PUSH1 0x4 DUP4 SUB PUSH2 0x3FF JUMPI DUP3 ISZERO PUSH2 0x431 JUMPI SWAP1 DUP4 SWAP3 SWAP2 DUP9 PUSH2 0x1AA DUP2 SWAP9 SWAP8 SWAP7 PUSH2 0x15D9 JUMP JUMPDEST SWAP2 AND SWAP7 AND DUP7 EQ DUP1 ISZERO SWAP1 PUSH2 0x411 JUMPI JUMPDEST PUSH2 0x3FF JUMPI DUP1 DUP12 MSTORE PUSH1 0x20 SWAP9 DUP12 DUP11 MSTORE PUSH1 0xFF PUSH1 0x40 DUP14 KECCAK256 SLOAD AND ISZERO PUSH2 0x3E9 JUMPI PUSH1 0x40 MLOAD SWAP5 PUSH1 0x80 DUP7 ADD SWAP1 DUP2 GT DUP7 DUP3 LT OR PUSH2 0x3D4 JUMPI PUSH1 0x40 MSTORE PUSH1 0x3 DUP6 MSTORE PUSH1 0x60 CALLDATASIZE DUP12 DUP8 ADD CALLDATACOPY DUP2 PUSH2 0x1FD DUP7 PUSH2 0x177A JUMP JUMPDEST MSTORE DUP2 PUSH2 0x208 DUP7 PUSH2 0x1787 JUMP JUMPDEST MSTORE DUP5 MLOAD PUSH1 0x2 LT ISZERO PUSH2 0x3C0 JUMPI POP DUP4 DUP10 PUSH2 0x26A PUSH2 0x257 DUP12 SWAP11 SWAP9 SWAP6 SWAP7 DUP16 SWAP14 SWAP13 SWAP8 PUSH2 0x27E SWAP7 PUSH1 0x60 PUSH1 0x2 SWAP14 SWAP12 ADD MSTORE PUSH1 0x40 MLOAD SWAP12 DUP13 SWAP6 DUP7 ADD MSTORE DUP10 PUSH1 0x40 DUP7 ADD MSTORE DUP11 PUSH1 0x60 DUP7 ADD MSTORE PUSH1 0xC0 PUSH1 0x80 DUP7 ADD MSTORE PUSH1 0xE0 DUP6 ADD SWAP2 PUSH2 0x1612 JUMP JUMPDEST PUSH1 0x1F NOT SWAP4 DUP5 DUP5 DUP4 SUB ADD PUSH1 0xA0 DUP6 ADD MSTORE PUSH2 0x17AB JUMP JUMPDEST PUSH1 0xA4 CALLDATALOAD PUSH1 0xC0 DUP4 ADD MSTORE SUB SWAP1 DUP2 ADD DUP8 MSTORE DUP7 PUSH2 0x16B5 JUMP JUMPDEST AND SWAP4 PUSH1 0x40 MLOAD PUSH4 0xDFE1681 PUSH1 0xE0 SHL DUP2 MSTORE DUP7 DUP2 PUSH1 0x4 DUP2 DUP10 GAS STATICCALL SWAP1 DUP2 ISZERO PUSH2 0x3B5 JUMPI DUP9 SWAP2 PUSH2 0x398 JUMPI JUMPDEST POP PUSH1 0x40 MLOAD PUSH4 0xD21220A7 PUSH1 0xE0 SHL DUP2 MSTORE DUP8 DUP2 PUSH1 0x4 DUP2 DUP11 GAS STATICCALL SWAP8 DUP9 ISZERO PUSH2 0x38D JUMPI DUP10 SWAP9 PUSH2 0x35A JUMPI JUMPDEST POP POP DUP2 AND DUP3 SUB PUSH2 0x353 JUMPI DUP3 SWAP6 JUMPDEST AND SUB PUSH2 0x34B JUMPI SWAP2 JUMPDEST DUP1 EXTCODESIZE ISZERO PUSH2 0x347 JUMPI PUSH2 0x309 SWAP4 DUP6 DUP1 SWAP5 PUSH1 0x40 MLOAD SWAP7 DUP8 SWAP6 DUP7 SWAP5 DUP6 SWAP4 PUSH4 0x22C0D9F PUSH1 0xE0 SHL DUP6 MSTORE ADDRESS SWAP2 PUSH1 0x4 DUP7 ADD PUSH2 0x1735 JUMP JUMPDEST SUB SWAP3 GAS CALL DUP1 ISZERO PUSH2 0x33C JUMPI PUSH2 0x324 JUMPI JUMPDEST POP POP PUSH1 0x1 SLOAD AND PUSH1 0x1 SSTORE DUP1 RETURN JUMPDEST PUSH2 0x32D SWAP1 PUSH2 0x1656 JUMP JUMPDEST PUSH2 0x338 JUMPI DUP2 CODESIZE PUSH2 0x318 JUMP JUMPDEST POP DUP1 REVERT JUMPDEST PUSH1 0x40 MLOAD RETURNDATASIZE DUP5 DUP3 RETURNDATACOPY RETURNDATASIZE SWAP1 REVERT JUMPDEST DUP5 DUP1 REVERT JUMPDEST POP DUP4 SWAP2 PUSH2 0x2DC JUMP JUMPDEST DUP7 SWAP6 PUSH2 0x2D4 JUMP JUMPDEST DUP4 SWAP3 SWAP9 POP SWAP1 DUP2 PUSH2 0x37E SWAP3 SWAP1 RETURNDATASIZE LT PUSH2 0x386 JUMPI JUMPDEST PUSH2 0x376 DUP2 DUP4 PUSH2 0x16B5 JUMP JUMPDEST DUP2 ADD SWAP1 PUSH2 0x16D6 JUMP JUMPDEST SWAP7 SWAP1 CODESIZE PUSH2 0x2C7 JUMP JUMPDEST POP RETURNDATASIZE PUSH2 0x36C JUMP JUMPDEST PUSH1 0x40 MLOAD RETURNDATASIZE DUP12 DUP3 RETURNDATACOPY RETURNDATASIZE SWAP1 REVERT JUMPDEST PUSH2 0x3AF SWAP2 POP DUP8 RETURNDATASIZE DUP10 GT PUSH2 0x386 JUMPI PUSH2 0x376 DUP2 DUP4 PUSH2 0x16B5 JUMP JUMPDEST CODESIZE PUSH2 0x2A3 JUMP JUMPDEST PUSH1 0x40 MLOAD RETURNDATASIZE DUP11 DUP3 RETURNDATACOPY RETURNDATASIZE SWAP1 REVERT JUMPDEST PUSH4 0x4E487B71 PUSH1 0xE0 SHL PUSH1 0x0 SWAP1 DUP2 MSTORE PUSH1 0x32 PUSH1 0x4 MSTORE REVERT JUMPDEST POP PUSH4 0x4E487B71 PUSH1 0xE0 SHL PUSH1 0x0 SWAP1 DUP2 MSTORE PUSH1 0x41 PUSH1 0x4 MSTORE REVERT JUMPDEST SWAP1 PUSH1 0x40 MLOAD SWAP1 PUSH4 0x82E73DD1 PUSH1 0xE0 SHL DUP3 MSTORE PUSH1 0x4 DUP3 ADD MSTORE REVERT JUMPDEST PUSH1 0x40 MLOAD PUSH4 0x20DB8267 PUSH1 0xE0 SHL DUP2 MSTORE PUSH1 0x4 SWAP1 REVERT JUMPDEST POP DUP2 PUSH1 0x3 LT ISZERO PUSH2 0x431 JUMPI DUP6 DUP9 PUSH2 0x429 PUSH1 0x60 DUP7 ADD PUSH2 0x15D9 JUMP JUMPDEST AND EQ ISZERO PUSH2 0x1B8 JUMP JUMPDEST PUSH4 0x4E487B71 PUSH1 0xE0 SHL DUP12 MSTORE PUSH1 0x32 PUSH1 0x4 MSTORE DUP9 DUP12 REVERT JUMPDEST PUSH1 0x40 MLOAD PUSH4 0x1F2A2005 PUSH1 0xE0 SHL DUP2 MSTORE PUSH1 0x4 SWAP1 REVERT JUMPDEST PUSH1 0x40 MLOAD PUSH4 0x45F5CE8B PUSH1 0xE1 SHL DUP2 MSTORE PUSH1 0x4 SWAP1 REVERT JUMPDEST PUSH1 0x40 MLOAD PUSH4 0xAB35696F PUSH1 0xE0 SHL DUP2 MSTORE PUSH1 0x4 SWAP1 REVERT JUMPDEST PUSH1 0x40 MLOAD PUSH3 0x82B429 PUSH1 0xE8 SHL DUP2 MSTORE PUSH1 0x4 SWAP1 REVERT JUMPDEST PUSH1 0x0 DUP1 REVERT JUMPDEST DUP7 DUP1 REVERT JUMPDEST DUP1 REVERT JUMPDEST PUSH2 0x156E JUMP JUMPDEST POP CALLVALUE PUSH2 0x494 JUMPI PUSH1 0x40 CALLDATASIZE PUSH1 0x3 NOT ADD SLT PUSH2 0x494 JUMPI PUSH1 0x1 PUSH1 0x1 PUSH1 0x40 SHL SUB PUSH1 0x4 CALLDATALOAD DUP2 DUP2 GT PUSH2 0x60D JUMPI PUSH2 0x4CE SWAP1 CALLDATASIZE SWAP1 PUSH1 0x4 ADD PUSH2 0x153E JUMP JUMPDEST SWAP1 SWAP2 PUSH1 0x24 CALLDATALOAD SWAP1 DUP2 GT PUSH2 0x609 JUMPI PUSH2 0x4E8 SWAP1 CALLDATASIZE SWAP1 PUSH1 0x4 ADD PUSH2 0x153E JUMP JUMPDEST SWAP1 SWAP2 PUSH1 0x1 PUSH1 0x1 PUSH1 0xA0 SHL SUB SWAP2 SWAP1 PUSH32 0x0 DUP4 AND CALLER SUB PUSH2 0x47A JUMPI DUP2 DUP2 SUB PUSH2 0x5D2 JUMPI DUP6 JUMPDEST DUP2 DUP2 LT PUSH2 0x531 JUMPI DUP7 DUP1 RETURN JUMPDEST DUP1 PUSH2 0x548 PUSH2 0x543 PUSH2 0x5CD SWAP4 DUP7 DUP10 PUSH2 0x15B3 JUMP JUMPDEST PUSH2 0x18FF JUMP JUMPDEST DUP6 PUSH2 0x55C PUSH2 0x557 DUP5 DUP8 DUP13 PUSH2 0x15B3 JUMP JUMPDEST PUSH2 0x15D9 JUMP JUMPDEST AND DUP10 MSTORE PUSH2 0x57D PUSH1 0x20 SWAP2 DUP11 DUP4 MSTORE PUSH1 0x40 DUP12 KECCAK256 SWAP1 PUSH1 0xFF DUP1 NOT DUP4 SLOAD AND SWAP2 ISZERO ISZERO AND OR SWAP1 SSTORE JUMP JUMPDEST PUSH32 0xCF2B36BF2AA8353623D06F58EAB9577176D9214E588362C013A7EEB0586463F1 PUSH2 0x5AC PUSH2 0x557 DUP5 DUP8 DUP13 PUSH2 0x15B3 JUMP JUMPDEST SWAP2 DUP8 PUSH2 0x5BC PUSH2 0x543 DUP7 DUP11 DUP14 PUSH2 0x15B3 JUMP JUMPDEST SWAP4 PUSH1 0x40 MLOAD SWAP5 ISZERO ISZERO DUP6 MSTORE AND SWAP3 LOG2 PUSH2 0x15ED JUMP JUMPDEST PUSH2 0x526 JUMP JUMPDEST PUSH1 0x40 MLOAD PUSH3 0x461BCD PUSH1 0xE5 SHL DUP2 MSTORE PUSH1 0x20 PUSH1 0x4 DUP3 ADD MSTORE PUSH1 0xF PUSH1 0x24 DUP3 ADD MSTORE PUSH15 0x98CADCCEE8D040DAD2E6DAC2E8C6D PUSH1 0x8B SHL PUSH1 0x44 DUP3 ADD MSTORE PUSH1 0x64 SWAP1 REVERT JUMPDEST DUP4 DUP1 REVERT JUMPDEST DUP3 DUP1 REVERT JUMPDEST POP CALLVALUE PUSH2 0x494 JUMPI DUP1 PUSH1 0x3 NOT CALLDATASIZE ADD SLT PUSH2 0x494 JUMPI PUSH1 0x20 PUSH1 0x40 MLOAD PUSH32 0x0 DUP2 MSTORE RETURN JUMPDEST POP CALLVALUE PUSH2 0x494 JUMPI PUSH1 0xC0 CALLDATASIZE PUSH1 0x3 NOT ADD SLT PUSH2 0x494 JUMPI PUSH2 0x666 PUSH2 0x14FE JUMP JUMPDEST SWAP1 PUSH1 0x24 SWAP1 DUP2 CALLDATALOAD SWAP2 PUSH2 0x675 PUSH2 0x1514 JUMP JUMPDEST SWAP3 PUSH1 0x1 PUSH1 0x1 PUSH1 0x40 SHL SUB SWAP1 PUSH1 0x64 CALLDATALOAD DUP3 DUP2 GT PUSH2 0x347 JUMPI PUSH2 0x697 SWAP1 CALLDATASIZE SWAP1 PUSH1 0x4 ADD PUSH2 0x153E JUMP JUMPDEST SWAP3 PUSH1 0x84 CALLDATALOAD SWAP1 DUP2 GT PUSH2 0x969 JUMPI PUSH2 0x6B0 SWAP1 CALLDATASIZE SWAP1 PUSH1 0x4 ADD PUSH2 0x153E JUMP JUMPDEST PUSH1 0x1 PUSH1 0x1 PUSH1 0xA0 SHL SUB SWAP6 SWAP2 SWAP3 SWAP2 PUSH32 0x0 DUP8 AND CALLER SUB PUSH2 0x47A JUMPI PUSH1 0x1 SLOAD SWAP9 PUSH1 0xFF SWAP1 DUP2 DUP12 AND PUSH2 0x468 JUMPI DUP2 DUP12 PUSH1 0x8 SHR AND PUSH2 0x456 JUMPI PUSH2 0xFF00 NOT SWAP11 DUP12 AND PUSH2 0x100 OR PUSH1 0x1 SSTORE DUP7 ISZERO PUSH2 0x444 JUMPI PUSH1 0x2 DUP9 LT PUSH2 0x3FF JUMPI DUP8 ISZERO PUSH2 0x956 JUMPI SWAP1 DUP5 SWAP4 SWAP3 SWAP2 DUP10 PUSH2 0x730 DUP2 SWAP9 SWAP8 PUSH2 0x15D9 JUMP JUMPDEST SWAP2 AND SWAP7 AND DUP7 EQ DUP1 ISZERO SWAP1 PUSH2 0x931 JUMPI JUMPDEST PUSH2 0x3FF JUMPI PUSH1 0x0 NOT DUP9 ADD DUP9 DUP2 GT PUSH2 0x91E JUMPI DUP4 SUB PUSH2 0x3FF JUMPI DUP10 JUMPDEST DUP4 DUP2 LT PUSH2 0x8C8 JUMPI POP POP POP DUP7 SWAP3 PUSH2 0x79C SWAP9 SWAP10 SWAP11 SWAP3 PUSH2 0x7B0 PUSH2 0x7C4 SWAP4 PUSH1 0x40 MLOAD SWAP12 DUP13 SWAP4 PUSH1 0x20 SWAP12 PUSH1 0x1 DUP14 DUP8 ADD MSTORE DUP11 PUSH1 0x40 DUP8 ADD MSTORE DUP12 PUSH1 0x60 DUP8 ADD MSTORE PUSH1 0xC0 PUSH1 0x80 DUP8 ADD MSTORE PUSH1 0xE0 DUP7 ADD SWAP2 PUSH2 0x1612 JUMP JUMPDEST SWAP1 PUSH1 0x1F NOT SWAP5 DUP6 DUP6 DUP5 SUB ADD PUSH1 0xA0 DUP7 ADD MSTORE PUSH2 0x1612 JUMP JUMPDEST PUSH1 0xA4 CALLDATALOAD PUSH1 0xC0 DUP4 ADD MSTORE SUB SWAP1 DUP2 ADD DUP10 MSTORE DUP9 PUSH2 0x16B5 JUMP JUMPDEST AND SWAP4 PUSH1 0x40 MLOAD PUSH4 0xDFE1681 PUSH1 0xE0 SHL DUP2 MSTORE DUP5 DUP2 PUSH1 0x4 DUP2 DUP10 GAS STATICCALL SWAP1 DUP2 ISZERO PUSH2 0x3B5 JUMPI DUP9 SWAP2 PUSH2 0x8AB JUMPI JUMPDEST POP PUSH1 0x40 MLOAD PUSH4 0xD21220A7 PUSH1 0xE0 SHL DUP2 MSTORE DUP6 DUP2 PUSH1 0x4 DUP2 DUP11 GAS STATICCALL SWAP6 DUP7 ISZERO PUSH2 0x38D JUMPI DUP10 SWAP7 PUSH2 0x888 JUMPI JUMPDEST POP POP DUP2 AND DUP3 SUB PUSH2 0x881 JUMPI DUP3 SWAP4 JUMPDEST AND SUB PUSH2 0x87A JUMPI JUMPDEST DUP3 EXTCODESIZE ISZERO PUSH2 0x347 JUMPI SWAP2 PUSH2 0x850 SWAP4 SWAP2 DUP6 DUP1 SWAP5 PUSH1 0x40 MLOAD SWAP7 DUP8 SWAP6 DUP7 SWAP5 DUP6 SWAP4 PUSH4 0x22C0D9F PUSH1 0xE0 SHL DUP6 MSTORE ADDRESS SWAP2 PUSH1 0x4 DUP7 ADD PUSH2 0x1735 JUMP JUMPDEST SUB SWAP3 GAS CALL DUP1 ISZERO PUSH2 0x33C JUMPI PUSH2 0x86B JUMPI JUMPDEST POP SWAP1 PUSH1 0x1 SLOAD AND PUSH1 0x1 SSTORE DUP1 RETURN JUMPDEST PUSH2 0x874 SWAP1 PUSH2 0x1656 JUMP JUMPDEST CODESIZE PUSH2 0x85F JUMP JUMPDEST POP DUP4 PUSH2 0x821 JUMP JUMPDEST DUP7 SWAP4 PUSH2 0x81A JUMP JUMPDEST DUP4 SWAP3 SWAP7 POP SWAP1 DUP2 PUSH2 0x8A3 SWAP3 SWAP1 RETURNDATASIZE LT PUSH2 0x386 JUMPI PUSH2 0x376 DUP2 DUP4 PUSH2 0x16B5 JUMP JUMPDEST SWAP5 SWAP1 CODESIZE PUSH2 0x80D JUMP JUMPDEST PUSH2 0x8C2 SWAP2 POP DUP6 RETURNDATASIZE DUP8 GT PUSH2 0x386 JUMPI PUSH2 0x376 DUP2 DUP4 PUSH2 0x16B5 JUMP JUMPDEST CODESIZE PUSH2 0x7E9 JUMP JUMPDEST DUP10 PUSH2 0x8D7 PUSH2 0x557 DUP4 DUP8 DUP11 PUSH2 0x15B3 JUMP JUMPDEST AND DUP12 MSTORE DUP11 PUSH1 0x20 MSTORE DUP2 PUSH1 0x40 DUP13 KECCAK256 SLOAD AND ISZERO PUSH2 0x8F8 JUMPI PUSH2 0x8F3 SWAP1 PUSH2 0x15ED JUMP JUMPDEST PUSH2 0x756 JUMP JUMPDEST DUP10 PUSH2 0x908 PUSH2 0x557 DUP6 SWAP4 DUP8 DUP11 PUSH2 0x15B3 JUMP JUMPDEST PUSH1 0x40 MLOAD PUSH4 0x82E73DD1 PUSH1 0xE0 SHL DUP2 MSTORE SWAP2 AND PUSH1 0x4 DUP3 ADD MSTORE REVERT JUMPDEST PUSH4 0x4E487B71 PUSH1 0xE0 SHL DUP12 MSTORE PUSH1 0x11 PUSH1 0x4 MSTORE DUP3 DUP12 REVERT JUMPDEST POP PUSH1 0x0 NOT DUP9 ADD DUP9 DUP2 GT PUSH2 0x91E JUMPI DUP10 PUSH2 0x94E PUSH2 0x557 DUP10 SWAP4 DUP13 DUP10 PUSH2 0x15B3 JUMP JUMPDEST AND EQ ISZERO PUSH2 0x73E JUMP JUMPDEST PUSH4 0x4E487B71 PUSH1 0xE0 SHL DUP11 MSTORE PUSH1 0x32 PUSH1 0x4 MSTORE DUP3 DUP11 REVERT JUMPDEST DUP6 DUP1 REVERT JUMPDEST POP CALLVALUE PUSH2 0x494 JUMPI DUP1 PUSH1 0x3 NOT CALLDATASIZE ADD SLT PUSH2 0x494 JUMPI PUSH1 0x40 MLOAD PUSH32 0x0 PUSH1 0x1 PUSH1 0x1 PUSH1 0xA0 SHL SUB AND DUP2 MSTORE PUSH1 0x20 SWAP1 RETURN JUMPDEST POP CALLVALUE PUSH2 0x494 JUMPI PUSH1 0x80 CALLDATASIZE PUSH1 0x3 NOT ADD SLT PUSH2 0x494 JUMPI PUSH2 0x9CC PUSH2 0x14FE JUMP JUMPDEST PUSH1 0x1 PUSH1 0x1 PUSH1 0x40 SHL SUB SWAP2 PUSH1 0x64 CALLDATALOAD DUP4 DUP2 GT PUSH2 0x338 JUMPI CALLDATASIZE PUSH1 0x23 DUP3 ADD SLT ISZERO PUSH2 0x338 JUMPI DUP1 PUSH1 0x4 ADD CALLDATALOAD DUP5 DUP2 GT PUSH2 0x60D JUMPI DUP2 ADD PUSH1 0x24 DUP2 ADD SWAP4 CALLDATASIZE DUP6 GT PUSH2 0x609 JUMPI PUSH1 0x40 MLOAD PUSH4 0xDFE1681 PUSH1 0xE0 SHL DUP2 MSTORE PUSH1 0x20 DUP2 PUSH1 0x4 DUP2 CALLER GAS STATICCALL DUP1 ISZERO PUSH2 0xEBF JUMPI PUSH2 0xECA JUMPI JUMPDEST POP PUSH1 0x40 MLOAD PUSH4 0xD21220A7 PUSH1 0xE0 SHL DUP2 MSTORE PUSH1 0x20 DUP2 PUSH1 0x4 DUP2 CALLER GAS STATICCALL DUP1 ISZERO PUSH2 0xEBF JUMPI PUSH2 0xEA0 JUMPI JUMPDEST POP ADDRESS PUSH1 0x1 PUSH1 0x1 PUSH1 0xA0 SHL SUB SWAP1 SWAP2 AND SUB PUSH2 0xE8E JUMPI DUP2 PUSH1 0xC0 SWAP2 SUB SLT PUSH2 0x338 JUMPI PUSH1 0x24 DUP2 ADD CALLDATALOAD PUSH1 0xFF DUP2 AND DUP2 SUB PUSH2 0x60D JUMPI PUSH1 0x44 DUP3 ADD CALLDATALOAD SWAP4 PUSH1 0x1 PUSH1 0x1 PUSH1 0xA0 SHL SUB DUP6 AND DUP6 SUB PUSH2 0x609 JUMPI PUSH1 0x84 DUP4 ADD CALLDATALOAD DUP7 DUP2 GT PUSH2 0x347 JUMPI DUP2 PUSH1 0x24 PUSH2 0xAA3 SWAP3 DUP7 ADD ADD PUSH2 0x17E8 JUMP JUMPDEST SWAP6 PUSH1 0xA4 DUP5 ADD CALLDATALOAD SWAP1 DUP2 GT PUSH2 0x347 JUMPI SWAP1 PUSH1 0x24 PUSH2 0xABF SWAP3 DUP6 ADD ADD PUSH2 0x17E8 JUMP JUMPDEST SWAP2 PUSH1 0xC4 DUP2 ADD CALLDATALOAD SWAP5 PUSH2 0xB05 PUSH2 0x2710 PUSH2 0xAFA PUSH32 0x0 PUSH1 0x64 DUP7 ADD CALLDATALOAD PUSH2 0x184E JUMP JUMPDEST DIV PUSH1 0x64 DUP5 ADD CALLDATALOAD PUSH2 0x1861 JUMP JUMPDEST SWAP2 PUSH1 0x1 DUP4 ADD DUP4 GT PUSH2 0xE7A JUMPI DUP6 SWAP4 PUSH1 0x64 DUP3 ADD CALLDATALOAD JUMPDEST DUP10 MLOAD DUP1 PUSH1 0x0 NOT DUP2 ADD GT PUSH2 0xC75 JUMPI PUSH1 0x0 NOT ADD DUP7 LT ISZERO PUSH2 0xCF9 JUMPI PUSH1 0x1 PUSH1 0x1 PUSH1 0xA0 SHL SUB PUSH2 0xB42 DUP8 DUP13 PUSH2 0x1797 JUMP JUMPDEST MLOAD AND SWAP1 PUSH1 0x1 DUP8 ADD DUP8 GT PUSH2 0xC75 JUMPI PUSH1 0x1 PUSH1 0x1 PUSH1 0xA0 SHL SUB PUSH2 0xB64 PUSH1 0x1 DUP10 ADD DUP14 PUSH2 0x1797 JUMP JUMPDEST MLOAD AND SWAP1 PUSH1 0x1 PUSH1 0x1 PUSH1 0xA0 SHL SUB PUSH2 0xB79 DUP10 DUP12 PUSH2 0x1797 JUMP JUMPDEST MLOAD PUSH1 0x40 MLOAD PUSH4 0x95EA7B3 PUSH1 0xE0 SHL DUP2 MSTORE SWAP2 AND PUSH1 0x1 PUSH1 0x1 PUSH1 0xA0 SHL SUB DUP2 AND PUSH1 0x4 DUP4 ADD MSTORE PUSH1 0x24 DUP3 ADD DUP4 SWAP1 MSTORE SWAP3 SWAP1 PUSH1 0x20 DUP2 PUSH1 0x44 DUP2 DUP16 DUP10 GAS CALL DUP1 ISZERO PUSH2 0xCEE JUMPI PUSH2 0xCBF JUMPI JUMPDEST POP PUSH1 0x40 MLOAD SWAP4 PUSH2 0xBC4 DUP6 PUSH2 0x167F JUMP JUMPDEST PUSH1 0x2 DUP6 MSTORE PUSH1 0x40 CALLDATASIZE PUSH1 0x20 DUP8 ADD CALLDATACOPY PUSH2 0xBD9 DUP6 PUSH2 0x177A JUMP JUMPDEST MSTORE PUSH2 0xBE3 DUP5 PUSH2 0x1787 JUMP JUMPDEST MSTORE PUSH2 0x12C TIMESTAMP ADD TIMESTAMP GT PUSH2 0xCAB JUMPI SWAP2 DUP10 SWAP2 PUSH2 0xC26 SWAP4 DUP4 PUSH1 0x40 MLOAD DUP1 SWAP7 DUP2 SWAP6 DUP3 SWAP5 PUSH4 0x38ED1739 PUSH1 0xE0 SHL DUP5 MSTORE PUSH1 0x4 DUP5 ADD MSTORE DUP4 PUSH1 0x24 DUP5 ADD MSTORE PUSH1 0xA0 PUSH1 0x44 DUP5 ADD MSTORE PUSH1 0xA4 DUP4 ADD SWAP1 PUSH2 0x17AB JUMP JUMPDEST ADDRESS PUSH1 0x64 DUP4 ADD MSTORE PUSH2 0x12C TIMESTAMP ADD PUSH1 0x84 DUP4 ADD MSTORE SUB SWAP3 GAS CALL SWAP1 DUP2 ISZERO PUSH2 0x3B5 JUMPI DUP9 SWAP2 PUSH2 0xC89 JUMPI JUMPDEST POP DUP1 MLOAD DUP1 PUSH1 0x0 NOT DUP2 ADD GT PUSH2 0xC75 JUMPI PUSH2 0xC6F SWAP2 PUSH2 0xC68 SWAP2 PUSH1 0x0 NOT ADD SWAP1 PUSH2 0x1797 JUMP JUMPDEST MLOAD SWAP6 PUSH2 0x15ED JUMP JUMPDEST SWAP5 PUSH2 0xB18 JUMP JUMPDEST PUSH4 0x4E487B71 PUSH1 0xE0 SHL DUP10 MSTORE PUSH1 0x11 PUSH1 0x4 MSTORE PUSH1 0x24 DUP10 REVERT JUMPDEST PUSH2 0xCA5 SWAP2 POP RETURNDATASIZE DUP1 DUP11 DUP4 RETURNDATACOPY PUSH2 0xC9D DUP2 DUP4 PUSH2 0x16B5 JUMP JUMPDEST DUP2 ADD SWAP1 PUSH2 0x1886 JUMP JUMPDEST CODESIZE PUSH2 0xC48 JUMP JUMPDEST PUSH4 0x4E487B71 PUSH1 0xE0 SHL DUP11 MSTORE PUSH1 0x11 PUSH1 0x4 MSTORE PUSH1 0x24 DUP11 REVERT JUMPDEST PUSH2 0xCE0 SWAP1 PUSH1 0x20 RETURNDATASIZE PUSH1 0x20 GT PUSH2 0xCE7 JUMPI JUMPDEST PUSH2 0xCD8 DUP2 DUP4 PUSH2 0x16B5 JUMP JUMPDEST DUP2 ADD SWAP1 PUSH2 0x186E JUMP JUMPDEST POP CODESIZE PUSH2 0xBB6 JUMP JUMPDEST POP RETURNDATASIZE PUSH2 0xCCE JUMP JUMPDEST PUSH1 0x40 MLOAD RETURNDATASIZE DUP15 DUP3 RETURNDATACOPY RETURNDATASIZE SWAP1 REVERT JUMPDEST SWAP2 DUP8 SWAP4 SWAP2 DUP10 PUSH2 0xD0B DUP2 PUSH1 0x1 DUP10 ADD PUSH2 0x1861 JUMP JUMPDEST DUP6 LT PUSH2 0xE4F JUMPI POP DUP6 DUP5 SUB PUSH1 0x0 NOT ADD SWAP4 DUP5 GT PUSH2 0xE3B JUMPI PUSH1 0x40 MLOAD PUSH4 0xA9059CBB PUSH1 0xE0 SHL DUP2 MSTORE CALLER PUSH1 0x4 DUP3 ADD MSTORE PUSH1 0x1 SWAP7 SWAP1 SWAP7 ADD PUSH1 0x24 DUP8 ADD MSTORE SWAP4 SWAP5 SWAP3 SWAP4 PUSH1 0x20 DUP5 PUSH1 0x44 DUP2 DUP10 PUSH1 0x1 PUSH1 0x1 PUSH1 0xA0 SHL SUB DUP9 AND GAS CALL SWAP3 DUP4 ISZERO PUSH2 0xE30 JUMPI PUSH1 0x1 PUSH1 0xFF PUSH2 0xDE2 SWAP4 PUSH32 0x45E7252570BEBF093D5FA10DCBCF1EC94556AF7FFC1416C787598CA67C18C3D4 SWAP8 PUSH1 0x64 SWAP8 PUSH2 0xE11 JUMPI JUMPDEST POP AND SUB PUSH2 0xDE8 JUMPI PUSH1 0x40 MLOAD PUSH2 0xDA1 DUP2 PUSH2 0x169A JUMP JUMPDEST PUSH1 0x9 DUP2 MSTORE PUSH9 0xC6E4DEE6E65AC8CAF PUSH1 0xBB SHL PUSH1 0x20 DUP3 ADD MSTORE SWAP6 JUMPDEST PUSH1 0x40 MLOAD SWAP5 DUP6 SWAP5 ADD CALLDATALOAD DUP5 MSTORE PUSH1 0x20 DUP5 ADD MSTORE PUSH1 0x60 PUSH1 0x40 DUP5 ADD MSTORE PUSH1 0x1 DUP1 PUSH1 0xA0 SHL SUB AND SWAP5 PUSH1 0x60 DUP4 ADD SWAP1 PUSH2 0x16F5 JUMP JUMPDEST SUB SWAP1 LOG2 DUP1 RETURN JUMPDEST PUSH1 0x40 MLOAD PUSH2 0xDF4 DUP2 PUSH2 0x169A JUMP JUMPDEST PUSH1 0xA DUP2 MSTORE PUSH10 0x3A3934B0B733BAB630B9 PUSH1 0xB1 SHL PUSH1 0x20 DUP3 ADD MSTORE SWAP6 PUSH2 0xDB9 JUMP JUMPDEST PUSH2 0xE29 SWAP1 PUSH1 0x20 RETURNDATASIZE PUSH1 0x20 GT PUSH2 0xCE7 JUMPI PUSH2 0xCD8 DUP2 DUP4 PUSH2 0x16B5 JUMP JUMPDEST POP DUP11 PUSH2 0xD8E JUMP JUMPDEST PUSH1 0x40 MLOAD RETURNDATASIZE DUP9 DUP3 RETURNDATACOPY RETURNDATASIZE SWAP1 REVERT JUMPDEST PUSH4 0x4E487B71 PUSH1 0xE0 SHL DUP6 MSTORE PUSH1 0x11 PUSH1 0x4 MSTORE PUSH1 0x24 DUP6 REVERT JUMPDEST DUP5 PUSH2 0xE5F PUSH1 0x44 SWAP3 PUSH1 0x1 DUP11 ADD PUSH2 0x1861 JUMP JUMPDEST SWAP1 PUSH1 0x40 MLOAD SWAP2 PUSH4 0x27442115 PUSH1 0xE1 SHL DUP4 MSTORE PUSH1 0x4 DUP4 ADD MSTORE PUSH1 0x24 DUP3 ADD MSTORE REVERT JUMPDEST PUSH4 0x4E487B71 PUSH1 0xE0 SHL DUP7 MSTORE PUSH1 0x11 PUSH1 0x4 MSTORE PUSH1 0x24 DUP7 REVERT JUMPDEST PUSH1 0x40 MLOAD PUSH4 0xF7A632F5 PUSH1 0xE0 SHL DUP2 MSTORE PUSH1 0x4 SWAP1 REVERT JUMPDEST PUSH2 0xEB8 SWAP1 PUSH1 0x20 RETURNDATASIZE PUSH1 0x20 GT PUSH2 0x386 JUMPI PUSH2 0x376 DUP2 DUP4 PUSH2 0x16B5 JUMP JUMPDEST POP CODESIZE PUSH2 0xA47 JUMP JUMPDEST PUSH1 0x40 MLOAD RETURNDATASIZE DUP8 DUP3 RETURNDATACOPY RETURNDATASIZE SWAP1 REVERT JUMPDEST PUSH2 0xEE2 SWAP1 PUSH1 0x20 RETURNDATASIZE PUSH1 0x20 GT PUSH2 0x386 JUMPI PUSH2 0x376 DUP2 DUP4 PUSH2 0x16B5 JUMP JUMPDEST POP CODESIZE PUSH2 0xA25 JUMP JUMPDEST POP CALLVALUE PUSH2 0x494 JUMPI PUSH1 0x40 CALLDATASIZE PUSH1 0x3 NOT ADD SLT PUSH2 0x494 JUMPI PUSH2 0xF03 PUSH2 0x14FE JUMP JUMPDEST PUSH1 0x24 CALLDATALOAD SWAP1 DUP2 ISZERO ISZERO DUP1 DUP4 SUB PUSH2 0x609 JUMPI PUSH1 0x1 PUSH1 0x1 PUSH1 0xA0 SHL SUB SWAP1 PUSH32 0x0 DUP3 AND CALLER SUB PUSH2 0x47A JUMPI PUSH2 0xF88 PUSH1 0x20 SWAP3 PUSH32 0xCF2B36BF2AA8353623D06F58EAB9577176D9214E588362C013A7EEB0586463F1 SWAP5 AND SWAP5 DUP6 DUP8 MSTORE DUP7 DUP5 MSTORE PUSH1 0x40 DUP8 KECCAK256 SWAP1 PUSH1 0xFF DUP1 NOT DUP4 SLOAD AND SWAP2 ISZERO ISZERO AND OR SWAP1 SSTORE JUMP JUMPDEST PUSH1 0x40 MLOAD SWAP1 DUP2 MSTORE LOG2 DUP1 RETURN JUMPDEST POP CALLVALUE PUSH2 0x494 JUMPI PUSH1 0x20 DUP1 PUSH1 0x3 NOT CALLDATASIZE ADD SLT PUSH2 0x338 JUMPI PUSH2 0xFAD PUSH2 0x14FE JUMP JUMPDEST PUSH32 0x0 SWAP1 PUSH1 0x1 PUSH1 0x1 PUSH1 0xA0 SHL SUB SWAP1 DUP2 DUP4 AND CALLER SUB PUSH2 0x47A JUMPI AND DUP1 PUSH2 0x10AD JUMPI POP DUP3 DUP1 DUP1 DUP1 SELFBALANCE DUP1 SWAP6 GAS CALL RETURNDATASIZE ISZERO PUSH2 0x10A8 JUMPI RETURNDATASIZE PUSH1 0x1 PUSH1 0x1 PUSH1 0x40 SHL SUB DUP2 GT PUSH2 0x1094 JUMPI PUSH1 0x40 MLOAD SWAP1 PUSH2 0x101D PUSH1 0x1F DUP3 ADD PUSH1 0x1F NOT AND DUP7 ADD DUP4 PUSH2 0x16B5 JUMP JUMPDEST DUP2 MSTORE DUP5 DUP5 RETURNDATASIZE SWAP3 ADD RETURNDATACOPY JUMPDEST ISZERO PUSH2 0x1059 JUMPI DUP3 SWAP2 PUSH32 0x5FAFA99D0643513820BE26656B45130B01E1C03062E1266BF36F88CBD3BD9695 SWAP2 PUSH1 0x40 MLOAD SWAP1 DUP2 MSTORE LOG2 DUP1 RETURN JUMPDEST PUSH1 0x40 MLOAD PUSH3 0x461BCD PUSH1 0xE5 SHL DUP2 MSTORE PUSH1 0x4 DUP2 ADD DUP4 SWAP1 MSTORE PUSH1 0x13 PUSH1 0x24 DUP3 ADD MSTORE PUSH19 0x109390881D1C985B9CD9995C8819985A5B1959 PUSH1 0x6A SHL PUSH1 0x44 DUP3 ADD MSTORE PUSH1 0x64 SWAP1 REVERT JUMPDEST PUSH4 0x4E487B71 PUSH1 0xE0 SHL DUP6 MSTORE PUSH1 0x41 PUSH1 0x4 MSTORE PUSH1 0x24 DUP6 REVERT JUMPDEST PUSH2 0x1026 JUMP JUMPDEST SWAP2 PUSH1 0x40 MLOAD SWAP2 PUSH4 0x70A08231 PUSH1 0xE0 SHL DUP4 MSTORE ADDRESS PUSH1 0x4 DUP5 ADD MSTORE DUP2 DUP4 PUSH1 0x24 DUP2 DUP8 GAS STATICCALL SWAP3 DUP4 ISZERO PUSH2 0xEBF JUMPI DUP6 SWAP4 PUSH2 0x115E JUMPI JUMPDEST POP PUSH1 0x40 MLOAD PUSH4 0xA9059CBB PUSH1 0xE0 SHL DUP2 MSTORE PUSH1 0x1 PUSH1 0x1 PUSH1 0xA0 SHL SUB SWAP2 SWAP1 SWAP2 AND PUSH1 0x4 DUP3 ADD MSTORE PUSH1 0x24 DUP2 ADD DUP4 SWAP1 MSTORE SWAP2 DUP2 DUP4 PUSH1 0x44 DUP2 DUP9 DUP9 GAS CALL SWAP3 DUP4 ISZERO PUSH2 0xEBF JUMPI PUSH32 0x5FAFA99D0643513820BE26656B45130B01E1C03062E1266BF36F88CBD3BD9695 SWAP4 PUSH2 0x1141 JUMPI JUMPDEST POP PUSH1 0x40 MLOAD SWAP1 DUP2 MSTORE LOG2 DUP1 RETURN JUMPDEST PUSH2 0x1157 SWAP1 DUP4 RETURNDATASIZE DUP6 GT PUSH2 0xCE7 JUMPI PUSH2 0xCD8 DUP2 DUP4 PUSH2 0x16B5 JUMP JUMPDEST POP CODESIZE PUSH2 0x1136 JUMP JUMPDEST SWAP3 POP DUP2 DUP4 DUP2 RETURNDATASIZE DUP4 GT PUSH2 0x1186 JUMPI JUMPDEST PUSH2 0x1175 DUP2 DUP4 PUSH2 0x16B5 JUMP JUMPDEST DUP2 ADD SUB SLT PUSH2 0x347 JUMPI SWAP2 MLOAD SWAP2 DUP2 PUSH2 0x10D8 JUMP JUMPDEST POP RETURNDATASIZE PUSH2 0x116B JUMP JUMPDEST POP CALLVALUE PUSH2 0x494 JUMPI DUP1 PUSH1 0x3 NOT CALLDATASIZE ADD SLT PUSH2 0x494 JUMPI PUSH1 0x20 PUSH1 0xFF PUSH1 0x1 SLOAD AND PUSH1 0x40 MLOAD SWAP1 ISZERO ISZERO DUP2 MSTORE RETURN JUMPDEST POP CALLVALUE PUSH2 0x494 JUMPI PUSH1 0x60 CALLDATASIZE PUSH1 0x3 NOT ADD SLT PUSH2 0x494 JUMPI PUSH1 0x1 PUSH1 0x1 PUSH1 0x40 SHL SUB PUSH1 0x4 CALLDATALOAD DUP2 DUP2 GT PUSH2 0x60D JUMPI PUSH2 0x11E2 SWAP1 CALLDATASIZE SWAP1 PUSH1 0x4 ADD PUSH2 0x153E JUMP JUMPDEST SWAP1 PUSH1 0x24 SWAP3 DUP4 CALLDATALOAD SWAP1 DUP2 GT PUSH2 0x347 JUMPI PUSH2 0x11FD SWAP1 CALLDATASIZE SWAP1 PUSH1 0x4 ADD PUSH2 0x153E JUMP JUMPDEST PUSH1 0x44 SWAP5 SWAP2 SWAP5 SWAP4 DUP5 CALLDATALOAD SWAP2 DUP3 SWAP7 DUP9 SWAP4 JUMPDEST PUSH1 0x0 NOT DUP5 ADD DUP5 DUP2 GT PUSH2 0x13C4 JUMPI DUP6 LT ISZERO PUSH2 0x1327 JUMPI PUSH1 0x40 MLOAD SWAP1 PUSH2 0x122B DUP3 PUSH2 0x167F JUMP JUMPDEST PUSH1 0x2 DUP3 MSTORE PUSH1 0x40 CALLDATASIZE PUSH1 0x20 DUP5 ADD CALLDATACOPY PUSH2 0x1245 PUSH2 0x557 DUP8 DUP8 DUP12 PUSH2 0x15B3 JUMP JUMPDEST PUSH2 0x124E DUP4 PUSH2 0x177A JUMP JUMPDEST PUSH1 0x1 PUSH1 0x1 PUSH1 0xA0 SHL SUB SWAP2 DUP3 AND SWAP1 MSTORE PUSH1 0x1 DUP8 ADD DUP1 DUP9 GT PUSH2 0x1314 JUMPI SWAP3 DUP9 DUP14 SWAP4 PUSH2 0x12C2 PUSH1 0x40 SWAP5 PUSH2 0x1281 DUP16 SWAP9 DUP16 SWAP1 DUP14 PUSH2 0x557 SWAP3 PUSH2 0x15B3 JUMP JUMPDEST DUP2 PUSH2 0x128B DUP8 PUSH2 0x1787 JUMP JUMPDEST SWAP2 AND SWAP1 MSTORE PUSH2 0x129D PUSH2 0x557 DUP14 DUP13 DUP13 PUSH2 0x15B3 JUMP JUMPDEST AND SWAP4 DUP6 MLOAD SWAP8 DUP9 SWAP7 DUP8 SWAP6 DUP7 SWAP6 PUSH4 0xD06CA61F PUSH1 0xE0 SHL DUP8 MSTORE PUSH1 0x4 DUP8 ADD MSTORE DUP6 ADD MSTORE DUP4 ADD SWAP1 PUSH2 0x17AB JUMP JUMPDEST SUB SWAP2 GAS STATICCALL SWAP1 DUP2 ISZERO PUSH2 0x1309 JUMPI PUSH2 0x12E9 SWAP2 PUSH2 0x12E2 SWAP2 DUP13 SWAP2 PUSH2 0x12EF JUMPI JUMPDEST POP PUSH2 0x1787 JUMP JUMPDEST MLOAD SWAP5 PUSH2 0x15ED JUMP JUMPDEST SWAP4 PUSH2 0x120B JUMP JUMPDEST PUSH2 0x1303 SWAP2 POP RETURNDATASIZE DUP1 DUP15 DUP4 RETURNDATACOPY PUSH2 0xC9D DUP2 DUP4 PUSH2 0x16B5 JUMP JUMPDEST CODESIZE PUSH2 0x12DC JUMP JUMPDEST PUSH1 0x40 MLOAD RETURNDATASIZE DUP13 DUP3 RETURNDATACOPY RETURNDATASIZE SWAP1 REVERT JUMPDEST PUSH4 0x4E487B71 PUSH1 0xE0 SHL DUP14 MSTORE PUSH1 0x11 PUSH1 0x4 MSTORE DUP9 DUP14 REVERT JUMPDEST DUP6 SWAP1 DUP11 DUP11 PUSH2 0x2710 PUSH2 0x1358 PUSH32 0x0 DUP4 PUSH2 0x184E JUMP JUMPDEST DIV SWAP1 PUSH1 0x1 DUP3 ADD DUP1 SWAP3 GT PUSH2 0x13B1 JUMPI DUP2 PUSH2 0x136F SWAP2 PUSH2 0x1861 JUMP JUMPDEST SWAP2 DUP1 DUP4 DUP6 SUB SWAP4 SLT DUP5 DUP5 SLT DUP2 AND SWAP1 DUP6 DUP6 SGT SWAP1 ISZERO AND OR PUSH2 0x139E JUMPI POP PUSH1 0x60 SWAP4 POP PUSH1 0x40 MLOAD SWAP3 DUP4 MSTORE PUSH1 0x20 DUP4 ADD MSTORE PUSH1 0x40 DUP3 ADD MSTORE RETURN JUMPDEST PUSH4 0x4E487B71 PUSH1 0xE0 SHL DUP2 MSTORE PUSH1 0x11 PUSH1 0x4 MSTORE DUP5 SWAP1 REVERT JUMPDEST PUSH4 0x4E487B71 PUSH1 0xE0 SHL DUP4 MSTORE PUSH1 0x11 PUSH1 0x4 MSTORE DUP5 DUP4 REVERT JUMPDEST PUSH4 0x4E487B71 PUSH1 0xE0 SHL DUP12 MSTORE PUSH1 0x11 PUSH1 0x4 MSTORE DUP7 DUP12 REVERT JUMPDEST POP CALLVALUE PUSH2 0x494 JUMPI DUP1 PUSH1 0x3 NOT CALLDATASIZE ADD SLT PUSH2 0x494 JUMPI PUSH1 0x20 PUSH1 0x40 MLOAD PUSH7 0x38D7EA4C68000 DUP2 MSTORE RETURN JUMPDEST POP CALLVALUE PUSH2 0x494 JUMPI PUSH1 0x20 CALLDATASIZE PUSH1 0x3 NOT ADD SLT PUSH2 0x494 JUMPI PUSH1 0x4 CALLDATALOAD DUP1 ISZERO ISZERO DUP1 SWAP2 SUB PUSH2 0x338 JUMPI PUSH32 0x0 PUSH1 0x1 PUSH1 0x1 PUSH1 0xA0 SHL SUB AND CALLER SUB PUSH2 0x47A JUMPI PUSH1 0x20 PUSH32 0xE2FB031EE032DC02D8011DC50B816EB450CF856ABD8261680DAC74F72165BD2 SWAP2 PUSH1 0xFF NOT PUSH1 0x1 SLOAD AND PUSH1 0xFF DUP3 AND OR PUSH1 0x1 SSTORE PUSH1 0x40 MLOAD SWAP1 DUP2 MSTORE LOG1 DUP1 RETURN JUMPDEST POP CALLVALUE PUSH2 0x494 JUMPI PUSH1 0x20 CALLDATASIZE PUSH1 0x3 NOT ADD SLT PUSH2 0x494 JUMPI PUSH1 0x20 SWAP1 PUSH1 0xFF SWAP1 PUSH1 0x40 SWAP1 PUSH1 0x1 PUSH1 0x1 PUSH1 0xA0 SHL SUB PUSH2 0x14B0 PUSH2 0x14FE JUMP JUMPDEST AND DUP2 MSTORE DUP1 DUP5 MSTORE KECCAK256 SLOAD AND PUSH1 0x40 MLOAD SWAP1 ISZERO ISZERO DUP2 MSTORE RETURN JUMPDEST SWAP1 POP CALLVALUE PUSH2 0x338 JUMPI PUSH1 0x20 CALLDATASIZE PUSH1 0x3 NOT ADD SLT PUSH2 0x338 JUMPI PUSH1 0x20 SWAP2 PUSH1 0xFF SWAP1 PUSH1 0x40 SWAP1 PUSH1 0x1 PUSH1 0x1 PUSH1 0xA0 SHL SUB PUSH2 0x14EF PUSH2 0x14FE JUMP JUMPDEST AND DUP2 MSTORE DUP1 DUP6 MSTORE KECCAK256 SLOAD AND ISZERO ISZERO DUP2 MSTORE RETURN JUMPDEST PUSH1 0x4 CALLDATALOAD SWAP1 PUSH1 0x1 PUSH1 0x1 PUSH1 0xA0 SHL SUB DUP3 AND DUP3 SUB PUSH2 0x48B JUMPI JUMP JUMPDEST PUSH1 0x44 CALLDATALOAD SWAP1 PUSH1 0x1 PUSH1 0x1 PUSH1 0xA0 SHL SUB DUP3 AND DUP3 SUB PUSH2 0x48B JUMPI JUMP JUMPDEST CALLDATALOAD SWAP1 PUSH1 0x1 PUSH1 0x1 PUSH1 0xA0 SHL SUB DUP3 AND DUP3 SUB PUSH2 0x48B JUMPI JUMP JUMPDEST SWAP2 DUP2 PUSH1 0x1F DUP5 ADD SLT ISZERO PUSH2 0x48B JUMPI DUP3 CALLDATALOAD SWAP2 PUSH1 0x1 PUSH1 0x1 PUSH1 0x40 SHL SUB DUP4 GT PUSH2 0x48B JUMPI PUSH1 0x20 DUP1 DUP6 ADD SWAP5 DUP5 PUSH1 0x5 SHL ADD ADD GT PUSH2 0x48B JUMPI JUMP JUMPDEST CALLVALUE PUSH2 0x48B JUMPI PUSH1 0x0 CALLDATASIZE PUSH1 0x3 NOT ADD SLT PUSH2 0x48B JUMPI PUSH1 0x40 MLOAD PUSH32 0x0 PUSH1 0x1 PUSH1 0x1 PUSH1 0xA0 SHL SUB AND DUP2 MSTORE PUSH1 0x20 SWAP1 RETURN JUMPDEST SWAP2 SWAP1 DUP2 LT ISZERO PUSH2 0x15C3 JUMPI PUSH1 0x5 SHL ADD SWAP1 JUMP JUMPDEST PUSH4 0x4E487B71 PUSH1 0xE0 SHL PUSH1 0x0 MSTORE PUSH1 0x32 PUSH1 0x4 MSTORE PUSH1 0x24 PUSH1 0x0 REVERT JUMPDEST CALLDATALOAD PUSH1 0x1 PUSH1 0x1 PUSH1 0xA0 SHL SUB DUP2 AND DUP2 SUB PUSH2 0x48B JUMPI SWAP1 JUMP JUMPDEST PUSH1 0x0 NOT DUP2 EQ PUSH2 0x15FC JUMPI PUSH1 0x1 ADD SWAP1 JUMP JUMPDEST PUSH4 0x4E487B71 PUSH1 0xE0 SHL PUSH1 0x0 MSTORE PUSH1 0x11 PUSH1 0x4 MSTORE PUSH1 0x24 PUSH1 0x0 REVERT JUMPDEST SWAP2 SWAP1 DUP1 DUP3 MSTORE PUSH1 0x20 DUP1 SWAP3 ADD SWAP3 SWAP2 PUSH1 0x0 JUMPDEST DUP3 DUP2 LT PUSH2 0x162F JUMPI POP POP POP POP SWAP1 JUMP JUMPDEST SWAP1 SWAP2 SWAP3 SWAP4 DUP3 DUP1 PUSH1 0x1 SWAP3 DUP4 DUP1 PUSH1 0xA0 SHL SUB PUSH2 0x1647 DUP10 PUSH2 0x152A JUMP JUMPDEST AND DUP2 MSTORE ADD SWAP6 ADD SWAP4 SWAP3 SWAP2 ADD PUSH2 0x1621 JUMP JUMPDEST PUSH1 0x1 PUSH1 0x1 PUSH1 0x40 SHL SUB DUP2 GT PUSH2 0x1669 JUMPI PUSH1 0x40 MSTORE JUMP JUMPDEST PUSH4 0x4E487B71 PUSH1 0xE0 SHL PUSH1 0x0 MSTORE PUSH1 0x41 PUSH1 0x4 MSTORE PUSH1 0x24 PUSH1 0x0 REVERT JUMPDEST PUSH1 0x60 DUP2 ADD SWAP1 DUP2 LT PUSH1 0x1 PUSH1 0x1 PUSH1 0x40 SHL SUB DUP3 GT OR PUSH2 0x1669 JUMPI PUSH1 0x40 MSTORE JUMP JUMPDEST PUSH1 0x40 DUP2 ADD SWAP1 DUP2 LT PUSH1 0x1 PUSH1 0x1 PUSH1 0x40 SHL SUB DUP3 GT OR PUSH2 0x1669 JUMPI PUSH1 0x40 MSTORE JUMP JUMPDEST SWAP1 PUSH1 0x1F DUP1 NOT SWAP2 ADD AND DUP2 ADD SWAP1 DUP2 LT PUSH1 0x1 PUSH1 0x1 PUSH1 0x40 SHL SUB DUP3 GT OR PUSH2 0x1669 JUMPI PUSH1 0x40 MSTORE JUMP JUMPDEST SWAP1 DUP2 PUSH1 0x20 SWAP2 SUB SLT PUSH2 0x48B JUMPI MLOAD PUSH1 0x1 PUSH1 0x1 PUSH1 0xA0 SHL SUB DUP2 AND DUP2 SUB PUSH2 0x48B JUMPI SWAP1 JUMP JUMPDEST SWAP2 SWAP1 DUP3 MLOAD SWAP3 DUP4 DUP3 MSTORE PUSH1 0x0 JUMPDEST DUP5 DUP2 LT PUSH2 0x1721 JUMPI POP POP DUP3 PUSH1 0x0 PUSH1 0x20 DUP1 SWAP5 SWAP6 DUP5 ADD ADD MSTORE PUSH1 0x1F DUP1 NOT SWAP2 ADD AND ADD ADD SWAP1 JUMP JUMPDEST PUSH1 0x20 DUP2 DUP4 ADD DUP2 ADD MLOAD DUP5 DUP4 ADD DUP3 ADD MSTORE ADD PUSH2 0x1700 JUMP JUMPDEST SWAP1 SWAP3 PUSH1 0x80 SWAP3 PUSH2 0x1760 SWAP6 SWAP5 DUP4 MSTORE PUSH1 0x20 DUP4 ADD MSTORE PUSH1 0x1 DUP1 PUSH1 0xA0 SHL SUB AND PUSH1 0x40 DUP3 ADD MSTORE DUP2 PUSH1 0x60 DUP3 ADD MSTORE ADD SWAP1 PUSH2 0x16F5 JUMP JUMPDEST SWAP1 JUMP JUMPDEST PUSH1 0x1 PUSH1 0x1 PUSH1 0x40 SHL SUB DUP2 GT PUSH2 0x1669 JUMPI PUSH1 0x5 SHL PUSH1 0x20 ADD SWAP1 JUMP JUMPDEST DUP1 MLOAD ISZERO PUSH2 0x15C3 JUMPI PUSH1 0x20 ADD SWAP1 JUMP JUMPDEST DUP1 MLOAD PUSH1 0x1 LT ISZERO PUSH2 0x15C3 JUMPI PUSH1 0x40 ADD SWAP1 JUMP JUMPDEST DUP1 MLOAD DUP3 LT ISZERO PUSH2 0x15C3 JUMPI PUSH1 0x20 SWAP2 PUSH1 0x5 SHL ADD ADD SWAP1 JUMP JUMPDEST SWAP1 DUP2 MLOAD DUP1 DUP3 MSTORE PUSH1 0x20 DUP1 DUP1 SWAP4 ADD SWAP4 ADD SWAP2 PUSH1 0x0 JUMPDEST DUP3 DUP2 LT PUSH2 0x17CB JUMPI POP POP POP POP SWAP1 JUMP JUMPDEST DUP4 MLOAD PUSH1 0x1 PUSH1 0x1 PUSH1 0xA0 SHL SUB AND DUP6 MSTORE SWAP4 DUP2 ADD SWAP4 SWAP3 DUP2 ADD SWAP3 PUSH1 0x1 ADD PUSH2 0x17BD JUMP JUMPDEST DUP2 PUSH1 0x1F DUP3 ADD SLT ISZERO PUSH2 0x48B JUMPI DUP1 CALLDATALOAD SWAP2 PUSH2 0x17FF DUP4 PUSH2 0x1763 JUMP JUMPDEST SWAP3 PUSH2 0x180D PUSH1 0x40 MLOAD SWAP5 DUP6 PUSH2 0x16B5 JUMP JUMPDEST DUP1 DUP5 MSTORE PUSH1 0x20 SWAP3 DUP4 DUP1 DUP7 ADD SWAP3 PUSH1 0x5 SHL DUP3 ADD ADD SWAP3 DUP4 GT PUSH2 0x48B JUMPI DUP4 ADD SWAP1 JUMPDEST DUP3 DUP3 LT PUSH2 0x1837 JUMPI POP POP POP POP SWAP1 JUMP JUMPDEST DUP4 DUP1 SWAP2 PUSH2 0x1843 DUP5 PUSH2 0x152A JUMP JUMPDEST DUP2 MSTORE ADD SWAP2 ADD SWAP1 PUSH2 0x1829 JUMP JUMPDEST DUP2 DUP2 MUL SWAP3 SWAP2 DUP2 ISZERO SWAP2 DUP5 DIV EQ OR ISZERO PUSH2 0x15FC JUMPI JUMP JUMPDEST SWAP2 SWAP1 DUP3 ADD DUP1 SWAP3 GT PUSH2 0x15FC JUMPI JUMP JUMPDEST SWAP1 DUP2 PUSH1 0x20 SWAP2 SUB SLT PUSH2 0x48B JUMPI MLOAD DUP1 ISZERO ISZERO DUP2 SUB PUSH2 0x48B JUMPI SWAP1 JUMP JUMPDEST PUSH1 0x20 SWAP1 DUP2 DUP2 DUP5 SUB SLT PUSH2 0x48B JUMPI DUP1 MLOAD SWAP1 PUSH1 0x1 PUSH1 0x1 PUSH1 0x40 SHL SUB DUP3 GT PUSH2 0x48B JUMPI ADD SWAP2 DUP1 PUSH1 0x1F DUP5 ADD SLT ISZERO PUSH2 0x48B JUMPI DUP3 MLOAD PUSH2 0x18BB DUP2 PUSH2 0x1763 JUMP JUMPDEST SWAP4 PUSH2 0x18C9 PUSH1 0x40 MLOAD SWAP6 DUP7 PUSH2 0x16B5 JUMP JUMPDEST DUP2 DUP6 MSTORE DUP4 DUP1 DUP7 ADD SWAP3 PUSH1 0x5 SHL DUP3 ADD ADD SWAP3 DUP4 GT PUSH2 0x48B JUMPI DUP4 ADD SWAP1 JUMPDEST DUP3 DUP3 LT PUSH2 0x18F0 JUMPI POP POP POP POP SWAP1 JUMP JUMPDEST DUP2 MLOAD DUP2 MSTORE SWAP1 DUP4 ADD SWAP1 DUP4 ADD PUSH2 0x18E2 JUMP JUMPDEST CALLDATALOAD DUP1 ISZERO ISZERO DUP2 SUB PUSH2 0x48B JUMPI SWAP1 JUMP INVALID LOG2 PUSH5 0x6970667358 0x22 SLT KECCAK256 0xD9 SIGNEXTEND PUSH24 0x307288C7A048C46E66B5C38501CFACB4C43BF70C57554655 SWAP10 SWAP5 0x23 0xD0 0xE2 PUSH5 0x736F6C6343 STOP ADDMOD SGT STOP CALLER "},"methodIdentifiers":{"MIN_PROFIT_WEI()":"3e69e169","WBNB()":"8dd95002","batchSetRouterWhitelist(address[],bool[])":"d1607fed","emergencyWithdraw(address)":"6ff1c9bc","executeCrossDexArbitrage(address,uint256,address,address[],address[],uint256)":"9148453a","executeTriangularArbitrage(address,uint256,address,address[],address,uint256)":"fbdc9c4c","flashLoanFeeBps()":"c0c7347e","isRouterWhitelisted(address)":"0aef023f","owner()":"8da5cb5b","pancakeCall(address,uint256,uint256,bytes)":"84800812","paused()":"5c975abb","setPaused(bool)":"16c38b3c","setRouterWhitelist(address,bool)":"7b224339","simulateArbitrage(address[],address[],uint256)":"4ffb759e","whitelistedRouters(address)":"0f874a13","wrappedNative()":"eb6d3a11"}}}}}