{
  "_format": "hh-sol-artifact-1",
  "contractName": "FlashArbitrage",
  "sourceName": "contracts/FlashArbitrage.sol",
  "abi": [
    {
      "inputs": [
        {
          "internalType": "address[]",
          "name": "_routers",
          "type": "address[]"
        },
        {
          "internalType": "address",
          "name": "_wrappedNative",
          "type": "address"
        },
        {
          "internalType": "uint256",
          "name": "_flashLoanFeeBps",
          "type": "uint256"
        }
      ],
      "stateMutability": "nonpayable",
      "type": "constructor"
    },
    {
      "inputs": [],
      "name": "ContractPaused",
      "type": "error"
    },
    {
      "inputs": [
        {
          "internalType": "uint256",
          "name": "expected",
          "type": "uint256"
        },
        {
          "internalType": "uint256",
          "name": "actual",
          "type": "uint256"
        }
      ],
      "name": "InsufficientProfit",
      "type": "error"
    },
    {
      "inputs": [],
      "name": "InvalidCallback",
      "type": "error"
    },
    {
      "inputs": [],
      "name": "InvalidPath",
      "type": "error"
    },
    {
      "inputs": [],
      "name": "ReentrancyGuard",
      "type": "error"
    },
    {
      "inputs": [
        {
          "internalType": "address",
          "name": "router",
          "type": "address"
        }
      ],
      "name": "RouterNotWhitelisted",
      "type": "error"
    },
    {
      "inputs": [],
      "name": "Unauthorized",
      "type": "error"
    },
    {
      "inputs": [],
      "name": "ZeroAmount",
      "type": "error"
    },
    {
      "anonymous": false,
      "inputs": [
        {
          "indexed": true,
          "internalType": "address",
          "name": "token",
          "type": "address"
        },
        {
          "indexed": false,
          "internalType": "uint256",
          "name": "borrowAmount",
          "type": "uint256"
        },
        {
          "indexed": false,
          "internalType": "uint256",
          "name": "profit",
          "type": "uint256"
        },
        {
          "indexed": false,
          "internalType": "string",
          "name": "arbitrageType",
          "type": "string"
        }
      ],
      "name": "ArbitrageExecuted",
      "type": "event"
    },
    {
      "anonymous": false,
      "inputs": [
        {
          "indexed": true,
          "internalType": "address",
          "name": "token",
          "type": "address"
        },
        {
          "indexed": false,
          "internalType": "uint256",
          "name": "amount",
          "type": "uint256"
        }
      ],
      "name": "EmergencyWithdraw",
      "type": "event"
    },
    {
      "anonymous": false,
      "inputs": [
        {
          "indexed": false,
          "internalType": "bool",
          "name": "status",
          "type": "bool"
        }
      ],
      "name": "Paused",
      "type": "event"
    },
    {
      "anonymous": false,
      "inputs": [
        {
          "indexed": true,
          "internalType": "address",
          "name": "router",
          "type": "address"
        },
        {
          "indexed": false,
          "internalType": "bool",
          "name": "status",
          "type": "bool"
        }
      ],
      "name": "RouterWhitelisted",
      "type": "event"
    },
    {
      "inputs": [],
      "name": "MIN_PROFIT_WEI",
      "outputs": [
        {
          "internalType": "uint256",
          "name": "",
          "type": "uint256"
        }
      ],
      "stateMutability": "view",
      "type": "function"
    },
    {
      "inputs": [],
      "name": "WBNB",
      "outputs": [
        {
          "internalType": "address",
          "name": "",
          "type": "address"
        }
      ],
      "stateMutability": "view",
      "type": "function"
    },
    {
      "inputs": [
        {
          "internalType": "address[]",
          "name": "routers",
          "type": "address[]"
        },
        {
          "internalType": "bool[]",
          "name": "statuses",
          "type": "bool[]"
        }
      ],
      "name": "batchSetRouterWhitelist",
      "outputs": [],
      "stateMutability": "nonpayable",
      "type": "function"
    },
    {
      "inputs": [
        {
          "internalType": "address",
          "name": "token",
          "type": "address"
        }
      ],
      "name": "emergencyWithdraw",
      "outputs": [],
      "stateMutability": "nonpayable",
      "type": "function"
    },
    {
      "inputs": [
        {
          "internalType": "address",
          "name": "flashPair",
          "type": "address"
        },
        {
          "internalType": "uint256",
          "name": "borrowAmount",
          "type": "uint256"
        },
        {
          "internalType": "address",
          "name": "tokenBorrow",
          "type": "address"
        },
        {
          "internalType": "address[]",
          "name": "path",
          "type": "address[]"
        },
        {
          "internalType": "address[]",
          "name": "routers",
          "type": "address[]"
        },
        {
          "internalType": "uint256",
          "name": "minProfit",
          "type": "uint256"
        }
      ],
      "name": "executeCrossDexArbitrage",
      "outputs": [],
      "stateMutability": "nonpayable",
      "type": "function"
    },
    {
      "inputs": [
        {
          "internalType": "address",
          "name": "flashPair",
          "type": "address"
        },
        {
          "internalType": "uint256",
          "name": "borrowAmount",
          "type": "uint256"
        },
        {
          "internalType": "address",
          "name": "tokenBorrow",
          "type": "address"
        },
        {
          "internalType": "address[]",
          "name": "path",
          "type": "address[]"
        },
        {
          "internalType": "address",
          "name": "router",
          "type": "address"
        },
        {
          "internalType": "uint256",
          "name": "minProfit",
          "type": "uint256"
        }
      ],
      "name": "executeTriangularArbitrage",
      "outputs": [],
      "stateMutability": "nonpayable",
      "type": "function"
    },
    {
      "inputs": [],
      "name": "flashLoanFeeBps",
      "outputs": [
        {
          "internalType": "uint256",
          "name": "",
          "type": "uint256"
        }
      ],
      "stateMutability": "view",
      "type": "function"
    },
    {
      "inputs": [
        {
          "internalType": "address",
          "name": "router",
          "type": "address"
        }
      ],
      "name": "isRouterWhitelisted",
      "outputs": [
        {
          "internalType": "bool",
          "name": "",
          "type": "bool"
        }
      ],
      "stateMutability": "view",
      "type": "function"
    },
    {
      "inputs": [],
      "name": "owner",
      "outputs": [
        {
          "internalType": "address",
          "name": "",
          "type": "address"
        }
      ],
      "stateMutability": "view",
      "type": "function"
    },
    {
      "inputs": [
        {
          "internalType": "address",
          "name": "sender",
          "type": "address"
        },
        {
          "internalType": "uint256",
          "name": "amount0",
          "type": "uint256"
        },
        {
          "internalType": "uint256",
          "name": "amount1",
          "type": "uint256"
        },
        {
          "internalType": "bytes",
          "name": "data",
          "type": "bytes"
        }
      ],
      "name": "pancakeCall",
      "outputs": [],
      "stateMutability": "nonpayable",
      "type": "function"
    },
    {
      "inputs": [],
      "name": "paused",
      "outputs": [
        {
          "internalType": "bool",
          "name": "",
          "type": "bool"
        }
      ],
      "stateMutability": "view",
      "type": "function"
    },
    {
      "inputs": [
        {
          "internalType": "bool",
          "name": "_paused",
          "type": "bool"
        }
      ],
      "name": "setPaused",
      "outputs": [],
      "stateMutability": "nonpayable",
      "type": "function"
    },
    {
      "inputs": [
        {
          "internalType": "address",
          "name": "router",
          "type": "address"
        },
        {
          "internalType": "bool",
          "name": "status",
          "type": "bool"
        }
      ],
      "name": "setRouterWhitelist",
      "outputs": [],
      "stateMutability": "nonpayable",
      "type": "function"
    },
    {
      "inputs": [
        {
          "internalType": "address[]",
          "name": "path",
          "type": "address[]"
        },
        {
          "internalType": "address[]",
          "name": "routers",
          "type": "address[]"
        },
        {
          "internalType": "uint256",
          "name": "amountIn",
          "type": "uint256"
        }
      ],
      "name": "simulateArbitrage",
      "outputs": [
        {
          "internalType": "uint256",
          "name": "expectedOut",
          "type": "uint256"
        },
        {
          "internalType": "uint256",
          "name": "flashFee",
          "type": "uint256"
        },
        {
          "internalType": "int256",
          "name": "netProfit",
          "type": "int256"
        }
      ],
      "stateMutability": "view",
      "type": "function"
    },
    {
      "inputs": [
        {
          "internalType": "address",
          "name": "",
          "type": "address"
        }
      ],
      "name": "whitelistedRouters",
      "outputs": [
        {
          "internalType": "bool",
          "name": "",
          "type": "bool"
        }
      ],
      "stateMutability": "view",
      "type": "function"
    },
    {
      "inputs": [],
      "name": "wrappedNative",
      "outputs": [
        {
          "internalType": "address",
          "name": "",
          "type": "address"
        }
      ],
      "stateMutability": "view",
      "type": "function"
    },
    {
      "stateMutability": "payable",
      "type": "receive"
    }
  ],
  "bytecode": "0x604060e0815234620002535762001c1790813803806200001f816200026e565b9384398201606083820312620002535782516001600160401b0390818111620002535784019180601f840112156200025357825191821162000258578160051b6020938480620000718185016200026e565b809681520192820101928311620002535784809101915b838310620002385750859250620000a29150860162000294565b9401516001600160a01b039485811615620001f45760648211620001c1573360805260a05260c05260005b81518110156200015f5784620000e48284620002a9565b511660005260008352836000206001908160ff198254161790557fcf2b36bf2aa8353623d06f58eab9577176d9214e588362c013a7eeb0586463f184876200012d8587620002a9565b5116928751908152a260001981146200014957600101620000cd565b634e487b7160e01b600052601160045260246000fd5b83516119429081620002d5823960805181818161013a015281816104f6015281816106be0152818161098301528181610f1c01528181610faf015261141a015260a05181611584015260c05181818161062901528181610ad101526113330152f35b845162461bcd60e51b815260048101859052600c60248201526b08ccaca40e8dede40d0d2ced60a31b6044820152606490fd5b845162461bcd60e51b815260048101859052601660248201527f496e76616c69642077726170706564206e6174697665000000000000000000006044820152606490fd5b8190620002458462000294565b815201910190849062000088565b600080fd5b634e487b7160e01b600052604160045260246000fd5b6040519190601f01601f191682016001600160401b038111838210176200025857604052565b51906001600160a01b03821682036200025357565b8051821015620002be5760209160051b010190565b634e487b7160e01b600052603260045260246000fdfe608080604052600436101561001d575b50361561001b57600080fd5b005b600090813560e01c9081630aef023f146114c3575080630f874a131461148557806316c38b3c146113f95780633e69e169146113d75780634ffb759e146111b05780635c975abb1461118d5780636ff1c9bc14610f925780637b22433914610ee957806384800812146109b25780638da5cb5b1461096d5780638dd95002146104975780639148453a1461064c578063c0c7347e14610611578063d1607fed1461049c578063eb6d3a11146104975763fbdc9c4c0361000f57346104945760c0366003190112610494576100ef6114fe565b60248035916100fc611514565b926001600160401b03916064358381116104905761011e90369060040161153e565b6001600160a01b039491906084358681169081900361048b57867f000000000000000000000000000000000000000000000000000000000000000016330361047a576001549860ff8a166104685760ff8a60081c166104565761ff0019998a1661010017600155861561044457600483036103ff5782156104315790839291886101aa819897966115d9565b911696168614801590610411575b6103ff57808b526020988b8a5260ff60408d205416156103e9576040519460808601908111868210176103d457604052600385526060368b870137816101fd8661177a565b528161020886611787565b528451600210156103c05750838961026a6102578b9a9895968f9d9c9761027e96606060029d9b01526040519b8c958601528960408601528a606086015260c0608086015260e0850191611612565b601f1993848483030160a08501526117ab565b60a43560c0830152039081018752866116b5565b1693604051630dfe168160e01b81528681600481895afa9081156103b5578891610398575b5060405163d21220a760e01b815287816004818a5afa97881561038d57899861035a575b5050811682036103535782955b160361034b57915b803b1561034757610309938580946040519687958694859363022c0d9f60e01b8552309160048601611735565b03925af1801561033c57610324575b50506001541660015580f35b61032d90611656565b610338578138610318565b5080fd5b6040513d84823e3d90fd5b8480fd5b5083916102dc565b86956102d4565b83929850908161037e92903d10610386575b61037681836116b5565b8101906116d6565b9690386102c7565b503d61036c565b6040513d8b823e3d90fd5b6103af9150873d89116103865761037681836116b5565b386102a3565b6040513d8a823e3d90fd5b634e487b7160e01b60009081526032600452fd5b50634e487b7160e01b60009081526041600452fd5b90604051906382e73dd160e01b82526004820152fd5b6040516320db826760e01b8152600490fd5b508160031015610431578588610429606086016115d9565b1614156101b8565b634e487b7160e01b8b526032600452888bfd5b604051631f2a200560e01b8152600490fd5b6040516345f5ce8b60e11b8152600490fd5b60405163ab35696f60e01b8152600490fd5b6040516282b42960e81b8152600490fd5b600080fd5b8680fd5b80fd5b61156e565b5034610494576040366003190112610494576001600160401b0360043581811161060d576104ce90369060040161153e565b9091602435908111610609576104e890369060040161153e565b90916001600160a01b0391907f00000000000000000000000000000000000000000000000000000000000000008316330361047a578181036105d257855b818110610531578680f35b806105486105436105cd9386896115b3565b6118ff565b8561055c61055784878c6115b3565b6115d9565b16895261057d6020918a835260408b209060ff801983541691151516179055565b7fcf2b36bf2aa8353623d06f58eab9577176d9214e588362c013a7eeb0586463f16105ac61055784878c6115b3565b91876105bc610543868a8d6115b3565b9360405194151585521692a26115ed565b610526565b60405162461bcd60e51b815260206004820152600f60248201526e098cadccee8d040dad2e6dac2e8c6d608b1b6044820152606490fd5b8380fd5b8280fd5b503461049457806003193601126104945760206040517f00000000000000000000000000000000000000000000000000000000000000008152f35b50346104945760c0366003190112610494576106666114fe565b90602490813591610675611514565b926001600160401b03906064358281116103475761069790369060040161153e565b92608435908111610969576106b090369060040161153e565b6001600160a01b03959192917f00000000000000000000000000000000000000000000000000000000000000008716330361047a576001549860ff90818b1661046857818b60081c166104565761ff00199a8b1661010017600155861561044457600288106103ff578715610956579084939291896107308198976115d9565b911696168614801590610931575b6103ff57600019880188811161091e5783036103ff57895b8381106108c857505050869261079c98999a926107b06107c4936040519b8c9360209b60018d8701528a60408701528b606087015260c0608087015260e0860191611612565b90601f1994858584030160a0860152611612565b60a43560c0830152039081018952886116b5565b1693604051630dfe168160e01b81528481600481895afa9081156103b55788916108ab575b5060405163d21220a760e01b815285816004818a5afa95861561038d578996610888575b5050811682036108815782935b160361087a575b823b15610347579161085093918580946040519687958694859363022c0d9f60e01b8552309160048601611735565b03925af1801561033c5761086b575b50906001541660015580f35b61087490611656565b3861085f565b5083610821565b869361081a565b8392965090816108a392903d106103865761037681836116b5565b94903861080d565b6108c29150853d87116103865761037681836116b5565b386107e9565b896108d761055783878a6115b3565b168b528a6020528160408c205416156108f8576108f3906115ed565b610756565b896109086105578593878a6115b3565b6040516382e73dd160e01b815291166004820152fd5b634e487b7160e01b8b526011600452828bfd5b50600019880188811161091e578961094e61055789938c896115b3565b16141561073e565b634e487b7160e01b8a526032600452828afd5b8580fd5b50346104945780600319360112610494576040517f00000000000000000000000000000000000000000000000000000000000000006001600160a01b03168152602090f35b5034610494576080366003190112610494576109cc6114fe565b6001600160401b0391606435838111610338573660238201121561033857806004013584811161060d578101602481019336851161060957604051630dfe168160e01b8152602081600481335afa8015610ebf57610eca575b5060405163d21220a760e01b8152602081600481335afa8015610ebf57610ea0575b50306001600160a01b0390911603610e8e578160c091031261033857602481013560ff8116810361060d576044820135936001600160a01b038516850361060957608483013586811161034757816024610aa3928601016117e8565b9560a484013590811161034757906024610abf928501016117e8565b9160c481013594610b05612710610afa7f0000000000000000000000000000000000000000000000000000000000000000606486013561184e565b046064840135611861565b91600183018311610e7a57859360648201355b895180600019810111610c755760001901861015610cf9576001600160a01b03610b42878c611797565b511690600187018711610c75576001600160a01b03610b64600189018d611797565b5116906001600160a01b03610b79898b611797565b5160405163095ea7b360e01b815291166001600160a01b03811660048301526024820183905292906020816044818f895af18015610cee57610cbf575b5060405193610bc48561167f565b600285526040366020870137610bd98561177a565b52610be384611787565b5261012c42014211610cab57918991610c2693836040518096819582946338ed173960e01b8452600484015283602484015260a0604484015260a48301906117ab565b30606483015261012c4201608483015203925af19081156103b5578891610c89575b50805180600019810111610c7557610c6f91610c68916000190190611797565b51956115ed565b94610b18565b634e487b7160e01b89526011600452602489fd5b610ca591503d808a833e610c9d81836116b5565b810190611886565b38610c48565b634e487b7160e01b8a52601160045260248afd5b610ce09060203d602011610ce7575b610cd881836116b5565b81019061186e565b5038610bb6565b503d610cce565b6040513d8e823e3d90fd5b9187939189610d0b8160018901611861565b8510610e4f575085840360001901938411610e3b5760405163a9059cbb60e01b8152336004820152600196909601602487015293949293602084604481896001600160a01b0388165af1928315610e3057600160ff610de2937f45e7252570bebf093d5fa10dcbcf1ec94556af7ffc1416c787598ca67c18c3d497606497610e11575b501603610de857604051610da18161169a565b60098152680c6e4dee6e65ac8caf60bb1b6020820152955b6040519485940135845260208401526060604084015260018060a01b03169460608301906116f5565b0390a280f35b604051610df48161169a565b600a8152693a3934b0b733bab630b960b11b602082015295610db9565b610e299060203d602011610ce757610cd881836116b5565b508a610d8e565b6040513d88823e3d90fd5b634e487b7160e01b85526011600452602485fd5b84610e5f60449260018a01611861565b9060405191632744211560e11b835260048301526024820152fd5b634e487b7160e01b86526011600452602486fd5b60405163f7a632f560e01b8152600490fd5b610eb89060203d6020116103865761037681836116b5565b5038610a47565b6040513d87823e3d90fd5b610ee29060203d6020116103865761037681836116b5565b5038610a25565b503461049457604036600319011261049457610f036114fe565b60243590811515808303610609576001600160a01b03907f00000000000000000000000000000000000000000000000000000000000000008216330361047a57610f886020927fcf2b36bf2aa8353623d06f58eab9577176d9214e588362c013a7eeb0586463f1941694858752868452604087209060ff801983541691151516179055565b604051908152a280f35b50346104945760208060031936011261033857610fad6114fe565b7f0000000000000000000000000000000000000000000000000000000000000000906001600160a01b0390818316330361047a5716806110ad5750828080804780955af13d156110a8573d6001600160401b038111611094576040519061101d601f8201601f19168601836116b5565b815284843d92013e5b156110595782917f5fafa99d0643513820be26656b45130b01e1c03062e1266bf36f88cbd3bd969591604051908152a280f35b60405162461bcd60e51b8152600481018390526013602482015272109390881d1c985b9cd9995c8819985a5b1959606a1b6044820152606490fd5b634e487b7160e01b85526041600452602485fd5b611026565b91604051916370a0823160e01b83523060048401528183602481875afa928315610ebf57859361115e575b5060405163a9059cbb60e01b81526001600160a01b039190911660048201526024810183905291818360448188885af1928315610ebf577f5fafa99d0643513820be26656b45130b01e1c03062e1266bf36f88cbd3bd969593611141575b50604051908152a280f35b61115790833d8511610ce757610cd881836116b5565b5038611136565b92508183813d8311611186575b61117581836116b5565b8101031261034757915191816110d8565b503d61116b565b5034610494578060031936011261049457602060ff600154166040519015158152f35b5034610494576060366003190112610494576001600160401b0360043581811161060d576111e290369060040161153e565b906024928335908111610347576111fd90369060040161153e565b604494919493843591829688935b60001984018481116113c457851015611327576040519061122b8261167f565b60028252604036602084013761124561055787878b6115b3565b61124e8361177a565b6001600160a01b039182169052600187018088116113145792888d936112c26040946112818f988f908d610557926115b3565b8161128b87611787565b9116905261129d6105578d8c8c6115b3565b169385519788968795869563d06ca61f60e01b875260048701528501528301906117ab565b03915afa908115611309576112e9916112e2918c916112ef575b50611787565b51946115ed565b9361120b565b61130391503d808e833e610c9d81836116b5565b386112dc565b6040513d8c823e3d90fd5b634e487b7160e01b8d526011600452888dfd5b85908a8a6127106113587f00000000000000000000000000000000000000000000000000000000000000008361184e565b0490600182018092116113b1578161136f91611861565b918083850393128484128116908585139015161761139e57506060935060405192835260208301526040820152f35b634e487b7160e01b815260116004528490fd5b634e487b7160e01b835260116004528483fd5b634e487b7160e01b8b526011600452868bfd5b5034610494578060031936011261049457602060405166038d7ea4c680008152f35b503461049457602036600319011261049457600435801515809103610338577f00000000000000000000000000000000000000000000000000000000000000006001600160a01b0316330361047a5760207f0e2fb031ee032dc02d8011dc50b816eb450cf856abd8261680dac74f72165bd29160ff196001541660ff821617600155604051908152a180f35b50346104945760203660031901126104945760209060ff906040906001600160a01b036114b06114fe565b1681528084522054166040519015158152f35b9050346103385760203660031901126103385760209160ff906040906001600160a01b036114ef6114fe565b16815280855220541615158152f35b600435906001600160a01b038216820361048b57565b604435906001600160a01b038216820361048b57565b35906001600160a01b038216820361048b57565b9181601f8401121561048b578235916001600160401b03831161048b576020808501948460051b01011161048b57565b3461048b57600036600319011261048b576040517f00000000000000000000000000000000000000000000000000000000000000006001600160a01b03168152602090f35b91908110156115c35760051b0190565b634e487b7160e01b600052603260045260246000fd5b356001600160a01b038116810361048b5790565b60001981146115fc5760010190565b634e487b7160e01b600052601160045260246000fd5b91908082526020809201929160005b82811061162f575050505090565b909192938280600192838060a01b036116478961152a565b16815201950193929101611621565b6001600160401b03811161166957604052565b634e487b7160e01b600052604160045260246000fd5b606081019081106001600160401b0382111761166957604052565b604081019081106001600160401b0382111761166957604052565b90601f801991011681019081106001600160401b0382111761166957604052565b9081602091031261048b57516001600160a01b038116810361048b5790565b919082519283825260005b848110611721575050826000602080949584010152601f8019910116010190565b602081830181015184830182015201611700565b909260809261176095948352602083015260018060a01b0316604082015281606082015201906116f5565b90565b6001600160401b0381116116695760051b60200190565b8051156115c35760200190565b8051600110156115c35760400190565b80518210156115c35760209160051b010190565b90815180825260208080930193019160005b8281106117cb575050505090565b83516001600160a01b0316855293810193928101926001016117bd565b81601f8201121561048b578035916117ff83611763565b9261180d60405194856116b5565b808452602092838086019260051b82010192831161048b578301905b828210611837575050505090565b8380916118438461152a565b815201910190611829565b818102929181159184041417156115fc57565b919082018092116115fc57565b9081602091031261048b5751801515810361048b5790565b602090818184031261048b578051906001600160401b03821161048b57019180601f8401121561048b5782516118bb81611763565b936118c960405195866116b5565b818552838086019260051b82010192831161048b578301905b8282106118f0575050505090565b815181529083019083016118e2565b35801515810361048b579056fea2646970667358221220d90b77307288c7a048c46e66b5c38501cfacb4c43bf70c57554655999423d0e264736f6c63430008130033",
  "linkReferences": {},
  "deployedLinkReferences": {}
}